{
  "contractName": "Marketplace",
  "abi": [
    {
      "inputs": [],
      "payable": false,
      "stateMutability": "nonpayable",
      "type": "constructor"
    },
    {
      "anonymous": false,
      "inputs": [
        {
          "indexed": false,
          "internalType": "uint256",
          "name": "id",
          "type": "uint256"
        },
        {
          "indexed": false,
          "internalType": "string",
          "name": "name",
          "type": "string"
        },
        {
          "indexed": false,
          "internalType": "string",
          "name": "description",
          "type": "string"
        },
        {
          "indexed": false,
          "internalType": "uint256",
          "name": "price",
          "type": "uint256"
        },
        {
          "indexed": false,
          "internalType": "address payable",
          "name": "owner",
          "type": "address"
        },
        {
          "indexed": false,
          "internalType": "address payable",
          "name": "buyer",
          "type": "address"
        },
        {
          "indexed": false,
          "internalType": "bool",
          "name": "purchased",
          "type": "bool"
        },
        {
          "indexed": false,
          "internalType": "bool",
          "name": "verified",
          "type": "bool"
        }
      ],
      "name": "ItemCreated",
      "type": "event"
    },
    {
      "constant": true,
      "inputs": [
        {
          "internalType": "uint256",
          "name": "",
          "type": "uint256"
        }
      ],
      "name": "couriers",
      "outputs": [
        {
          "internalType": "uint256",
          "name": "id",
          "type": "uint256"
        },
        {
          "internalType": "address payable",
          "name": "adr",
          "type": "address"
        },
        {
          "internalType": "uint256",
          "name": "reputation",
          "type": "uint256"
        }
      ],
      "payable": false,
      "stateMutability": "view",
      "type": "function"
    },
    {
      "constant": true,
      "inputs": [
        {
          "internalType": "uint256",
          "name": "",
          "type": "uint256"
        }
      ],
      "name": "items",
      "outputs": [
        {
          "internalType": "uint256",
          "name": "id",
          "type": "uint256"
        },
        {
          "internalType": "string",
          "name": "name",
          "type": "string"
        },
        {
          "internalType": "string",
          "name": "description",
          "type": "string"
        },
        {
          "internalType": "uint256",
          "name": "price",
          "type": "uint256"
        },
        {
          "internalType": "address payable",
          "name": "owner",
          "type": "address"
        },
        {
          "internalType": "address payable",
          "name": "buyer",
          "type": "address"
        },
        {
          "internalType": "bool",
          "name": "purchased",
          "type": "bool"
        },
        {
          "internalType": "bool",
          "name": "verified",
          "type": "bool"
        }
      ],
      "payable": false,
      "stateMutability": "view",
      "type": "function"
    },
    {
      "constant": true,
      "inputs": [],
      "name": "name",
      "outputs": [
        {
          "internalType": "string",
          "name": "",
          "type": "string"
        }
      ],
      "payable": false,
      "stateMutability": "view",
      "type": "function"
    },
    {
      "constant": false,
      "inputs": [],
      "name": "becomeCourier",
      "outputs": [],
      "payable": false,
      "stateMutability": "nonpayable",
      "type": "function"
    },
    {
      "constant": false,
      "inputs": [],
      "name": "getCouriers",
      "outputs": [
        {
          "components": [
            {
              "internalType": "uint256",
              "name": "id",
              "type": "uint256"
            },
            {
              "internalType": "address payable",
              "name": "adr",
              "type": "address"
            },
            {
              "internalType": "uint256",
              "name": "reputation",
              "type": "uint256"
            }
          ],
          "internalType": "struct Marketplace.Courier[]",
          "name": "",
          "type": "tuple[]"
        }
      ],
      "payable": false,
      "stateMutability": "nonpayable",
      "type": "function"
    },
    {
      "constant": false,
      "inputs": [],
      "name": "getItems",
      "outputs": [
        {
          "components": [
            {
              "internalType": "uint256",
              "name": "id",
              "type": "uint256"
            },
            {
              "internalType": "string",
              "name": "name",
              "type": "string"
            },
            {
              "internalType": "string",
              "name": "description",
              "type": "string"
            },
            {
              "internalType": "uint256",
              "name": "price",
              "type": "uint256"
            },
            {
              "internalType": "address payable",
              "name": "owner",
              "type": "address"
            },
            {
              "internalType": "address payable",
              "name": "buyer",
              "type": "address"
            },
            {
              "internalType": "bool",
              "name": "purchased",
              "type": "bool"
            },
            {
              "internalType": "bool",
              "name": "verified",
              "type": "bool"
            }
          ],
          "internalType": "struct Marketplace.Item[]",
          "name": "",
          "type": "tuple[]"
        }
      ],
      "payable": false,
      "stateMutability": "nonpayable",
      "type": "function"
    },
    {
      "constant": false,
      "inputs": [
        {
          "internalType": "string",
          "name": "_name",
          "type": "string"
        },
        {
          "internalType": "string",
          "name": "_description",
          "type": "string"
        },
        {
          "internalType": "uint256",
          "name": "_price",
          "type": "uint256"
        }
      ],
      "name": "createItem",
      "outputs": [],
      "payable": false,
      "stateMutability": "nonpayable",
      "type": "function"
    },
    {
      "constant": false,
      "inputs": [
        {
          "internalType": "uint256",
          "name": "_id",
          "type": "uint256"
        }
      ],
      "name": "purchaseItem",
      "outputs": [],
      "payable": true,
      "stateMutability": "payable",
      "type": "function"
    },
    {
      "constant": false,
      "inputs": [
        {
          "internalType": "uint256",
          "name": "_id",
          "type": "uint256"
        }
      ],
      "name": "verifyPurchase",
      "outputs": [],
      "payable": true,
      "stateMutability": "payable",
      "type": "function"
    },
    {
      "constant": false,
      "inputs": [
        {
          "internalType": "uint256",
          "name": "_id",
          "type": "uint256"
        }
      ],
      "name": "cancelPurchase",
      "outputs": [],
      "payable": true,
      "stateMutability": "payable",
      "type": "function"
    },
    {
      "constant": false,
      "inputs": [
        {
          "internalType": "uint256",
          "name": "_id",
          "type": "uint256"
        }
      ],
      "name": "deleteItem",
      "outputs": [],
      "payable": false,
      "stateMutability": "nonpayable",
      "type": "function"
    }
  ],
  "bytecode": "0x6080604052600060015560006002553480156200001b57600080fd5b506040518060400160405280600b81526020017f4d61726b6574706c616365000000000000000000000000000000000000000000815250600090805190602001906200006992919062000070565b506200011f565b828054600181600116156101000203166002900490600052602060002090601f016020900481019282601f10620000b357805160ff1916838001178555620000e4565b82800160010185558215620000e4579182015b82811115620000e3578251825591602001919060010190620000c6565b5b509050620000f39190620000f7565b5090565b6200011c91905b8082111562000118576000816000905550600101620000fe565b5090565b90565b612d85806200012f6000396000f3fe60806040526004361061009c5760003560e01c8063afa19eb411610064578063afa19eb414610160578063baca263e1461018b578063bfb231d2146101a7578063c3634ddc146101eb578063d38ea5bf14610207578063e2da3610146102235761009c565b806306fdde03146100a1578063214eafb7146100cc578063410d59cc146100e35780635fb6161c1461010e578063654fc83314610137575b600080fd5b3480156100ad57600080fd5b506100b6610262565b6040516100c391906128dc565b60405180910390f35b3480156100d857600080fd5b506100e1610300565b005b3480156100ef57600080fd5b506100f86103bb565b60405161010591906128ba565b60405180910390f35b34801561011a57600080fd5b50610135600480360361013091908101906121db565b610692565b005b34801561014357600080fd5b5061015e6004803603610159919081019061225a565b61091c565b005b34801561016c57600080fd5b50610175610c8a565b6040516101829190612898565b60405180910390f35b6101a560048036036101a0919081019061225a565b610d90565b005b3480156101b357600080fd5b506101ce60048036036101c9919081019061225a565b6112ad565b6040516101e2989796959493929190612b01565b60405180910390f35b6102056004803603610200919081019061225a565b61147f565b005b610221600480360361021c919081019061225a565b6119d4565b005b34801561022f57600080fd5b5061024a6004803603610245919081019061225a565b611f1a565b60405161025993929190612a3e565b60405180910390f35b60008054600181600116156101000203166002900480601f0160208091040260200160405190810160405280929190818152602001828054600181600116156101000203166002900480156102f85780601f106102cd576101008083540402835291602001916102f8565b820191906000526020600020905b8154815290600101906020018083116102db57829003601f168201915b505050505081565b604051806060016040528060025481526020013373ffffffffffffffffffffffffffffffffffffffff16815260200160008152506004600060025481526020019081526020016000206000820151816000015560208201518160010160006101000a81548173ffffffffffffffffffffffffffffffffffffffff021916908373ffffffffffffffffffffffffffffffffffffffff16021790555060408201518160020155905050600260008154809291906001019190505550565b6060806001546040519080825280602002602001820160405280156103fa57816020015b6103e7611f64565b8152602001906001900390816103df5790505b50905060008090505b60015481101561068a57600360008281526020019081526020016000206040518061010001604052908160008201548152602001600182018054600181600116156101000203166002900480601f0160208091040260200160405190810160405280929190818152602001828054600181600116156101000203166002900480156104cf5780601f106104a4576101008083540402835291602001916104cf565b820191906000526020600020905b8154815290600101906020018083116104b257829003601f168201915b50505050508152602001600282018054600181600116156101000203166002900480601f0160208091040260200160405190810160405280929190818152602001828054600181600116156101000203166002900480156105715780601f1061054657610100808354040283529160200191610571565b820191906000526020600020905b81548152906001019060200180831161055457829003601f168201915b50505050508152602001600382015481526020016004820160009054906101000a900473ffffffffffffffffffffffffffffffffffffffff1673ffffffffffffffffffffffffffffffffffffffff1673ffffffffffffffffffffffffffffffffffffffff1681526020016005820160009054906101000a900473ffffffffffffffffffffffffffffffffffffffff1673ffffffffffffffffffffffffffffffffffffffff1673ffffffffffffffffffffffffffffffffffffffff1681526020016005820160149054906101000a900460ff161515151581526020016005820160159054906101000a900460ff16151515158152505082828151811061067257fe5b60200260200101819052508080600101915050610403565b508091505090565b60008351116106d6576040517f08c379a00000000000000000000000000000000000000000000000000000000081526004016106cd906129be565b60405180910390fd5b60008111610719576040517f08c379a0000000000000000000000000000000000000000000000000000000008152600401610710906129be565b60405180910390fd5b60405180610100016040528060015481526020018481526020018381526020018281526020013373ffffffffffffffffffffffffffffffffffffffff168152602001600073ffffffffffffffffffffffffffffffffffffffff168152602001600015158152602001600015158152506003600060015481526020019081526020016000206000820151816000015560208201518160010190805190602001906107c3929190611fd9565b5060408201518160020190805190602001906107e0929190611fd9565b506060820151816003015560808201518160040160006101000a81548173ffffffffffffffffffffffffffffffffffffffff021916908373ffffffffffffffffffffffffffffffffffffffff16021790555060a08201518160050160006101000a81548173ffffffffffffffffffffffffffffffffffffffff021916908373ffffffffffffffffffffffffffffffffffffffff16021790555060c08201518160050160146101000a81548160ff02191690831515021790555060e08201518160050160156101000a81548160ff0219169083151502179055509050506001600081548092919060010191905055507fb20c2d8711077550b6ab982e22f2ef42cfd654829f1d6949fc5d34edc6aeb65e60015484848433600080600060405161090f989796959493929190612a75565b60405180910390a1505050565b610924612059565b600360008381526020019081526020016000206040518061010001604052908160008201548152602001600182018054600181600116156101000203166002900480601f0160208091040260200160405190810160405280929190818152602001828054600181600116156101000203166002900480156109e65780601f106109bb576101008083540402835291602001916109e6565b820191906000526020600020905b8154815290600101906020018083116109c957829003601f168201915b50505050508152602001600282018054600181600116156101000203166002900480601f016020809104026020016040519081016040528092919081815260200182805460018160011615610100020316600290048015610a885780601f10610a5d57610100808354040283529160200191610a88565b820191906000526020600020905b815481529060010190602001808311610a6b57829003601f168201915b50505050508152602001600382015481526020016004820160009054906101000a900473ffffffffffffffffffffffffffffffffffffffff1673ffffffffffffffffffffffffffffffffffffffff1673ffffffffffffffffffffffffffffffffffffffff1681526020016005820160009054906101000a900473ffffffffffffffffffffffffffffffffffffffff1673ffffffffffffffffffffffffffffffffffffffff1673ffffffffffffffffffffffffffffffffffffffff1681526020016005820160149054906101000a900460ff161515151581526020016005820160159054906101000a900460ff1615151515815250509050806080015173ffffffffffffffffffffffffffffffffffffffff163373ffffffffffffffffffffffffffffffffffffffff1614610bbb57600080fd5b8060c0015115610bca57600080fd5b60036000838152602001908152602001600020600080820160009055600182016000610bf691906120ce565b600282016000610c0691906120ce565b60038201600090556004820160006101000a81549073ffffffffffffffffffffffffffffffffffffffff02191690556005820160006101000a81549073ffffffffffffffffffffffffffffffffffffffff02191690556005820160146101000a81549060ff02191690556005820160156101000a81549060ff021916905550505050565b606080600254604051908082528060200260200182016040528015610cc957816020015b610cb6612116565b815260200190600190039081610cae5790505b50905060008090505b600254811015610d885760046000828152602001908152602001600020604051806060016040529081600082015481526020016001820160009054906101000a900473ffffffffffffffffffffffffffffffffffffffff1673ffffffffffffffffffffffffffffffffffffffff1673ffffffffffffffffffffffffffffffffffffffff168152602001600282015481525050828281518110610d7057fe5b60200260200101819052508080600101915050610cd2565b508091505090565b610d98612059565b600360008381526020019081526020016000206040518061010001604052908160008201548152602001600182018054600181600116156101000203166002900480601f016020809104026020016040519081016040528092919081815260200182805460018160011615610100020316600290048015610e5a5780601f10610e2f57610100808354040283529160200191610e5a565b820191906000526020600020905b815481529060010190602001808311610e3d57829003601f168201915b50505050508152602001600282018054600181600116156101000203166002900480601f016020809104026020016040519081016040528092919081815260200182805460018160011615610100020316600290048015610efc5780601f10610ed157610100808354040283529160200191610efc565b820191906000526020600020905b815481529060010190602001808311610edf57829003601f168201915b50505050508152602001600382015481526020016004820160009054906101000a900473ffffffffffffffffffffffffffffffffffffffff1673ffffffffffffffffffffffffffffffffffffffff1673ffffffffffffffffffffffffffffffffffffffff1681526020016005820160009054906101000a900473ffffffffffffffffffffffffffffffffffffffff1673ffffffffffffffffffffffffffffffffffffffff1673ffffffffffffffffffffffffffffffffffffffff1681526020016005820160149054906101000a900460ff161515151581526020016005820160159054906101000a900460ff16151515158152505090508060a0015173ffffffffffffffffffffffffffffffffffffffff163373ffffffffffffffffffffffffffffffffffffffff1614611065576040517f08c379a000000000000000000000000000000000000000000000000000000000815260040161105c9061295e565b60405180910390fd5b8060c00151801561107857508060e00151155b6110b7576040517f08c379a00000000000000000000000000000000000000000000000000000000081526004016110ae9061299e565b60405180910390fd5b6000816060015110156110ff576040517f08c379a00000000000000000000000000000000000000000000000000000000081526004016110f690612a1e565b60405180910390fd5b60018160c001901515908115158152505060018160e00190151590811515815250506000816080015190508160036000858152602001908152602001600020600082015181600001556020820151816001019080519060200190611164929190611fd9565b506040820151816002019080519060200190611181929190611fd9565b506060820151816003015560808201518160040160006101000a81548173ffffffffffffffffffffffffffffffffffffffff021916908373ffffffffffffffffffffffffffffffffffffffff16021790555060a08201518160050160006101000a81548173ffffffffffffffffffffffffffffffffffffffff021916908373ffffffffffffffffffffffffffffffffffffffff16021790555060c08201518160050160146101000a81548160ff02191690831515021790555060e08201518160050160156101000a81548160ff0219169083151502179055509050508073ffffffffffffffffffffffffffffffffffffffff166108fc83606001519081150290604051600060405180830381858888f193505050501580156112a7573d6000803e3d6000fd5b50505050565b6003602052806000526040600020600091509050806000015490806001018054600181600116156101000203166002900480601f01602080910402602001604051908101604052809291908181526020018280546001816001161561010002031660029004801561135f5780601f106113345761010080835404028352916020019161135f565b820191906000526020600020905b81548152906001019060200180831161134257829003601f168201915b505050505090806002018054600181600116156101000203166002900480601f0160208091040260200160405190810160405280929190818152602001828054600181600116156101000203166002900480156113fd5780601f106113d2576101008083540402835291602001916113fd565b820191906000526020600020905b8154815290600101906020018083116113e057829003601f168201915b5050505050908060030154908060040160009054906101000a900473ffffffffffffffffffffffffffffffffffffffff16908060050160009054906101000a900473ffffffffffffffffffffffffffffffffffffffff16908060050160149054906101000a900460ff16908060050160159054906101000a900460ff16905088565b611487612059565b600360008381526020019081526020016000206040518061010001604052908160008201548152602001600182018054600181600116156101000203166002900480601f0160208091040260200160405190810160405280929190818152602001828054600181600116156101000203166002900480156115495780601f1061151e57610100808354040283529160200191611549565b820191906000526020600020905b81548152906001019060200180831161152c57829003601f168201915b50505050508152602001600282018054600181600116156101000203166002900480601f0160208091040260200160405190810160405280929190818152602001828054600181600116156101000203166002900480156115eb5780601f106115c0576101008083540402835291602001916115eb565b820191906000526020600020905b8154815290600101906020018083116115ce57829003601f168201915b50505050508152602001600382015481526020016004820160009054906101000a900473ffffffffffffffffffffffffffffffffffffffff1673ffffffffffffffffffffffffffffffffffffffff1673ffffffffffffffffffffffffffffffffffffffff1681526020016005820160009054906101000a900473ffffffffffffffffffffffffffffffffffffffff1673ffffffffffffffffffffffffffffffffffffffff1673ffffffffffffffffffffffffffffffffffffffff1681526020016005820160149054906101000a900460ff161515151581526020016005820160159054906101000a900460ff16151515158152505090508060a0015173ffffffffffffffffffffffffffffffffffffffff163373ffffffffffffffffffffffffffffffffffffffff1614611754576040517f08c379a000000000000000000000000000000000000000000000000000000000815260040161174b906129fe565b60405180910390fd5b8060c00151801561176757508060e00151155b6117a6576040517f08c379a000000000000000000000000000000000000000000000000000000000815260040161179d9061297e565b60405180910390fd5b8060a0015173ffffffffffffffffffffffffffffffffffffffff163373ffffffffffffffffffffffffffffffffffffffff16146117e257600080fd5b8060c0015180156117f557508060e00151155b6117fe57600080fd5b60008160c001901515908115158152505060008160a0015190508073ffffffffffffffffffffffffffffffffffffffff166108fc83606001519081150290604051600060405180830381858888f19350505050158015611862573d6000803e3d6000fd5b5060008260a0019073ffffffffffffffffffffffffffffffffffffffff16908173ffffffffffffffffffffffffffffffffffffffff168152505081600360008581526020019081526020016000206000820151816000015560208201518160010190805190602001906118d6929190611fd9565b5060408201518160020190805190602001906118f3929190611fd9565b506060820151816003015560808201518160040160006101000a81548173ffffffffffffffffffffffffffffffffffffffff021916908373ffffffffffffffffffffffffffffffffffffffff16021790555060a08201518160050160006101000a81548173ffffffffffffffffffffffffffffffffffffffff021916908373ffffffffffffffffffffffffffffffffffffffff16021790555060c08201518160050160146101000a81548160ff02191690831515021790555060e08201518160050160156101000a81548160ff021916908315150217905550905050505050565b6119dc612059565b600360008381526020019081526020016000206040518061010001604052908160008201548152602001600182018054600181600116156101000203166002900480601f016020809104026020016040519081016040528092919081815260200182805460018160011615610100020316600290048015611a9e5780601f10611a7357610100808354040283529160200191611a9e565b820191906000526020600020905b815481529060010190602001808311611a8157829003601f168201915b50505050508152602001600282018054600181600116156101000203166002900480601f016020809104026020016040519081016040528092919081815260200182805460018160011615610100020316600290048015611b405780601f10611b1557610100808354040283529160200191611b40565b820191906000526020600020905b815481529060010190602001808311611b2357829003601f168201915b50505050508152602001600382015481526020016004820160009054906101000a900473ffffffffffffffffffffffffffffffffffffffff1673ffffffffffffffffffffffffffffffffffffffff1673ffffffffffffffffffffffffffffffffffffffff1681526020016005820160009054906101000a900473ffffffffffffffffffffffffffffffffffffffff1673ffffffffffffffffffffffffffffffffffffffff1673ffffffffffffffffffffffffffffffffffffffff1681526020016005820160149054906101000a900460ff161515151581526020016005820160159054906101000a900460ff16151515158152505090508060600151341015611c7e576040517f08c379a0000000000000000000000000000000000000000000000000000000008152600401611c75906128fe565b60405180910390fd5b6000816000015110158015611c995750600154816000015111155b611cd8576040517f08c379a0000000000000000000000000000000000000000000000000000000008152600401611ccf9061291e565b60405180910390fd5b8060c0015115611d1d576040517f08c379a0000000000000000000000000000000000000000000000000000000008152600401611d149061293e565b60405180910390fd5b3373ffffffffffffffffffffffffffffffffffffffff16816080015173ffffffffffffffffffffffffffffffffffffffff161415611d90576040517f08c379a0000000000000000000000000000000000000000000000000000000008152600401611d87906129de565b60405180910390fd5b60018160c001901515908115158152505034816060018181525050338160a0019073ffffffffffffffffffffffffffffffffffffffff16908173ffffffffffffffffffffffffffffffffffffffff16815250508060036000848152602001908152602001600020600082015181600001556020820151816001019080519060200190611e1d929190611fd9565b506040820151816002019080519060200190611e3a929190611fd9565b506060820151816003015560808201518160040160006101000a81548173ffffffffffffffffffffffffffffffffffffffff021916908373ffffffffffffffffffffffffffffffffffffffff16021790555060a08201518160050160006101000a81548173ffffffffffffffffffffffffffffffffffffffff021916908373ffffffffffffffffffffffffffffffffffffffff16021790555060c08201518160050160146101000a81548160ff02191690831515021790555060e08201518160050160156101000a81548160ff0219169083151502179055509050505050565b60046020528060005260406000206000915090508060000154908060010160009054906101000a900473ffffffffffffffffffffffffffffffffffffffff16908060020154905083565b60405180610100016040528060008152602001606081526020016060815260200160008152602001600073ffffffffffffffffffffffffffffffffffffffff168152602001600073ffffffffffffffffffffffffffffffffffffffff1681526020016000151581526020016000151581525090565b828054600181600116156101000203166002900490600052602060002090601f016020900481019282601f1061201a57805160ff1916838001178555612048565b82800160010185558215612048579182015b8281111561204757825182559160200191906001019061202c565b5b509050612055919061214d565b5090565b60405180610100016040528060008152602001606081526020016060815260200160008152602001600073ffffffffffffffffffffffffffffffffffffffff168152602001600073ffffffffffffffffffffffffffffffffffffffff1681526020016000151581526020016000151581525090565b50805460018160011615610100020316600290046000825580601f106120f45750612113565b601f016020900490600052602060002090810190612112919061214d565b5b50565b604051806060016040528060008152602001600073ffffffffffffffffffffffffffffffffffffffff168152602001600081525090565b61216f91905b8082111561216b576000816000905550600101612153565b5090565b90565b600082601f83011261218357600080fd5b813561219661219182612bba565b612b8d565b915080825260208301602083018583830111156121b257600080fd5b6121bd838284612cd8565b50505092915050565b6000813590506121d581612d2b565b92915050565b6000806000606084860312156121f057600080fd5b600084013567ffffffffffffffff81111561220a57600080fd5b61221686828701612172565b935050602084013567ffffffffffffffff81111561223357600080fd5b61223f86828701612172565b9250506040612250868287016121c6565b9150509250925092565b60006020828403121561226c57600080fd5b600061227a848285016121c6565b91505092915050565b600061228f8383612781565b60608301905092915050565b60006122a783836127c3565b905092915050565b6122b881612c90565b82525050565b6122c781612c90565b82525050565b60006122d882612c06565b6122e28185612c4c565b93506122ed83612be6565b8060005b8381101561231e5781516123058882612283565b975061231083612c32565b9250506001810190506122f1565b5085935050505092915050565b600061233682612c11565b6123408185612c5d565b93508360208202850161235285612bf6565b8060005b8581101561238e578484038952815161236f858261229b565b945061237a83612c3f565b925060208a01995050600181019050612356565b50829750879550505050505092915050565b6123a981612ca2565b82525050565b6123b881612ca2565b82525050565b60006123c982612c27565b6123d38185612c7f565b93506123e3818560208601612ce7565b6123ec81612d1a565b840191505092915050565b600061240282612c1c565b61240c8185612c6e565b935061241c818560208601612ce7565b61242581612d1a565b840191505092915050565b600061243b82612c1c565b6124458185612c7f565b9350612455818560208601612ce7565b61245e81612d1a565b840191505092915050565b6000612476602a83612c7f565b91507f7468657265206d75737420626520656e6f756768206574686572206f6e206d6560008301527f73736167652073656e74000000000000000000000000000000000000000000006020830152604082019050919050565b60006124dc601983612c7f565b91507f6974656d206d757374206861766520612076616c6964206964000000000000006000830152602082019050919050565b600061251c602983612c7f565b91507f6974656d20646f6573206e6f74206861766520746f206265207075726368617360008301527f6564206265666f726500000000000000000000000000000000000000000000006020830152604082019050919050565b6000612582601d83612c7f565b91507f6d73672e73656e646572206d757374206265206974656d2062757965720000006000830152602082019050919050565b60006125c2602683612c7f565b91507f7075726368617365206d75737420626520696e20766572696669636174696f6e60008301527f20706861736500000000000000000000000000000000000000000000000000006020830152604082019050919050565b6000612628602783612c7f565b91507f6974656d206d7573742062652070757263686173656420627574206e6f74207660008301527f65726966696564000000000000000000000000000000000000000000000000006020830152604082019050919050565b600061268e600083612c7f565b9150600082019050919050565b60006126a8601e83612c7f565b91507f73656c6c65722063616e6e6f742062757920697473206f776e206974656d00006000830152602082019050919050565b60006126e8601883612c7f565b91507f6d73672e73656e646572206d75737420626520627579657200000000000000006000830152602082019050919050565b6000612728602383612c7f565b91507f6974656d207072696365206d75737420626520756e7369676e656420696e746560008301527f67657200000000000000000000000000000000000000000000000000000000006020830152604082019050919050565b606082016000820151612797600085018261287a565b5060208201516127aa60208501826122af565b5060408201516127bd604085018261287a565b50505050565b6000610100830160008301516127dc600086018261287a565b50602083015184820360208601526127f482826123f7565b9150506040830151848203604086015261280e82826123f7565b9150506060830151612823606086018261287a565b50608083015161283660808601826122af565b5060a083015161284960a08601826122af565b5060c083015161285c60c08601826123a0565b5060e083015161286f60e08601826123a0565b508091505092915050565b61288381612cce565b82525050565b61289281612cce565b82525050565b600060208201905081810360008301526128b281846122cd565b905092915050565b600060208201905081810360008301526128d4818461232b565b905092915050565b600060208201905081810360008301526128f68184612430565b905092915050565b6000602082019050818103600083015261291781612469565b9050919050565b60006020820190508181036000830152612937816124cf565b9050919050565b600060208201905081810360008301526129578161250f565b9050919050565b6000602082019050818103600083015261297781612575565b9050919050565b60006020820190508181036000830152612997816125b5565b9050919050565b600060208201905081810360008301526129b78161261b565b9050919050565b600060208201905081810360008301526129d781612681565b9050919050565b600060208201905081810360008301526129f78161269b565b9050919050565b60006020820190508181036000830152612a17816126db565b9050919050565b60006020820190508181036000830152612a378161271b565b9050919050565b6000606082019050612a536000830186612889565b612a6060208301856122be565b612a6d6040830184612889565b949350505050565b600061010082019050612a8b600083018b612889565b8181036020830152612a9d818a6123be565b90508181036040830152612ab181896123be565b9050612ac06060830188612889565b612acd60808301876122be565b612ada60a08301866122be565b612ae760c08301856123af565b612af460e08301846123af565b9998505050505050505050565b600061010082019050612b17600083018b612889565b8181036020830152612b29818a612430565b90508181036040830152612b3d8189612430565b9050612b4c6060830188612889565b612b5960808301876122be565b612b6660a08301866122be565b612b7360c08301856123af565b612b8060e08301846123af565b9998505050505050505050565b6000604051905081810181811067ffffffffffffffff82111715612bb057600080fd5b8060405250919050565b600067ffffffffffffffff821115612bd157600080fd5b601f19601f8301169050602081019050919050565b6000819050602082019050919050565b6000819050602082019050919050565b600081519050919050565b600081519050919050565b600081519050919050565b600081519050919050565b6000602082019050919050565b6000602082019050919050565b600082825260208201905092915050565b600082825260208201905092915050565b600082825260208201905092915050565b600082825260208201905092915050565b6000612c9b82612cae565b9050919050565b60008115159050919050565b600073ffffffffffffffffffffffffffffffffffffffff82169050919050565b6000819050919050565b82818337600083830152505050565b60005b83811015612d05578082015181840152602081019050612cea565b83811115612d14576000848401525b50505050565b6000601f19601f8301169050919050565b612d3481612cce565b8114612d3f57600080fd5b5056fea365627a7a72315820858b862a69e8204bc967d61500b5db73606e65c12165865548056c35560606d66c6578706572696d656e74616cf564736f6c63430005100040",
  "source": "pragma solidity ^0.5.0;\npragma experimental ABIEncoderV2;\n\n\ncontract Marketplace {\n    string public name;\n    uint256 itemCount = 0;\n    uint256 courierCount = 0;\n\n    mapping(uint256 => Item) public items;\n    mapping(uint256 => Courier) public couriers;\n\n    struct Courier {\n        uint256 id;\n        address payable adr;\n        uint256 reputation;\n    }\n\n    struct Item {\n        uint256 id;\n        string name;\n        string description;\n        uint256 price;\n        address payable owner;\n        address payable buyer;\n        bool purchased;\n        bool verified;\n    }\n    /**\n     ** Events\n     **/\n    event ItemCreated(\n        uint256 id,\n        string name,\n        string description,\n        uint256 price,\n        address payable owner,\n        address payable buyer,\n        bool purchased,\n        bool verified\n    );\n\n    constructor() public {\n        name = \"Marketplace\";\n    }\n\n    function becomeCourier() public {\n        // require() is not already a courier\n        couriers[courierCount] = Courier(courierCount, msg.sender, 0);\n        courierCount++;\n    }\n\n    function getCouriers() public returns (Courier[] memory) {\n        Courier[] memory ret = new Courier[](courierCount);\n        for (uint256 i = 0; i < courierCount; i++) {\n            ret[i] = couriers[i];\n        }\n        return ret;\n    }\n\n    function getItems() public returns (Item[] memory) {\n        Item[] memory ret = new Item[](itemCount);\n        for (uint256 i = 0; i < itemCount; i++) {\n            ret[i] = items[i];\n        }\n        return ret;\n    }\n\n    function createItem(\n        string memory _name,\n        string memory _description,\n        uint256 _price\n    ) public {\n        require(bytes(_name).length > 0, \"\");\n        require(_price > 0, \"\");\n\n        items[itemCount] = Item(\n            itemCount,\n            _name,\n            _description,\n            _price,\n            msg.sender,\n            address(0),\n            false,\n            false\n        );\n        itemCount++;\n        emit ItemCreated(\n            itemCount,\n            _name,\n            _description,\n            _price,\n            msg.sender,\n            address(0),\n            false,\n            false\n        );\n    }\n\n    function purchaseItem(uint256 _id) public payable {\n        // fetch the item\n        Item memory _item = items[_id];\n        require(\n            msg.value >= _item.price,\n            \"there must be enough ether on message sent\"\n        );\n        require(\n            _item.id >= 0 && _item.id <= itemCount,\n            \"item must have a valid id\"\n        );\n        require(!_item.purchased, \"item does not have to be purchased before\");\n        require(_item.owner != msg.sender, \"seller cannot buy its own item\");\n        _item.purchased = true;\n        _item.price = msg.value;\n        _item.buyer = msg.sender;\n        items[_id] = _item;\n    }\n\n    function verifyPurchase(uint256 _id) public payable {\n        Item memory _item = items[_id];\n        require(msg.sender == _item.buyer, \"msg.sender must be item buyer\");\n        require(\n            _item.purchased && !_item.verified,\n            \"item must be purchased but not verified\"\n        );\n        require(_item.price >= 0, \"item price must be unsigned integer\");\n        _item.purchased = true;\n        _item.verified = true;\n        address payable _seller = _item.owner;\n        items[_id] = _item;\n        _seller.transfer(_item.price);\n    }\n\n    function cancelPurchase(uint256 _id) public payable {\n        Item memory _item = items[_id];\n        require(msg.sender == _item.buyer, \"msg.sender must be buyer\");\n        require(\n            _item.purchased && !_item.verified,\n            \"purchase must be in verification phase\"\n        );\n        require(msg.sender == _item.buyer);\n        require(_item.purchased && !_item.verified);\n        _item.purchased = false;\n        address payable target = _item.buyer;\n        target.transfer(_item.price);\n        _item.buyer = address(0);\n        items[_id] = _item;\n    }\n\n    function deleteItem(uint256 _id) public {\n        Item memory _item = items[_id];\n        require(msg.sender == _item.owner);\n        require(!_item.purchased);\n        delete items[_id];\n    }\n}\n",
  "sourcePath": "/Users/berkeatac/Desktop/escrow_dapp/contracts/Marketplace.sol",
  "compiler": {
    "name": "solc",
    "version": "0.5.16+commit.9c3226ce.Emscripten.clang"
  },
  "schemaVersion": "3.1.0",
  "updatedAt": "2020-05-13T18:21:59.428Z",
  "networkType": "ethereum",
  "devdoc": {
    "methods": {}
  },
  "userdoc": {
    "methods": {}
  }
}