{
  "contractName": "Marketplace",
  "abi": [
    {
      "inputs": [],
      "payable": false,
      "stateMutability": "nonpayable",
      "type": "constructor"
    },
    {
      "anonymous": false,
      "inputs": [
        {
          "indexed": false,
          "internalType": "uint256",
          "name": "id",
          "type": "uint256"
        },
        {
          "indexed": false,
          "internalType": "string",
          "name": "name",
          "type": "string"
        },
        {
          "indexed": false,
          "internalType": "string",
          "name": "description",
          "type": "string"
        },
        {
          "indexed": false,
          "internalType": "uint256",
          "name": "price",
          "type": "uint256"
        },
        {
          "indexed": false,
          "internalType": "address payable",
          "name": "owner",
          "type": "address"
        },
        {
          "indexed": false,
          "internalType": "address payable",
          "name": "buyer",
          "type": "address"
        },
        {
          "indexed": false,
          "internalType": "bool",
          "name": "purchased",
          "type": "bool"
        },
        {
          "indexed": false,
          "internalType": "bool",
          "name": "verified",
          "type": "bool"
        }
      ],
      "name": "ItemCreated",
      "type": "event"
    },
    {
      "constant": true,
      "inputs": [
        {
          "internalType": "uint256",
          "name": "",
          "type": "uint256"
        }
      ],
      "name": "items",
      "outputs": [
        {
          "internalType": "uint256",
          "name": "id",
          "type": "uint256"
        },
        {
          "internalType": "string",
          "name": "name",
          "type": "string"
        },
        {
          "internalType": "string",
          "name": "description",
          "type": "string"
        },
        {
          "internalType": "uint256",
          "name": "price",
          "type": "uint256"
        },
        {
          "internalType": "address payable",
          "name": "owner",
          "type": "address"
        },
        {
          "internalType": "address payable",
          "name": "buyer",
          "type": "address"
        },
        {
          "internalType": "bool",
          "name": "purchased",
          "type": "bool"
        },
        {
          "internalType": "bool",
          "name": "verified",
          "type": "bool"
        }
      ],
      "payable": false,
      "stateMutability": "view",
      "type": "function"
    },
    {
      "constant": true,
      "inputs": [],
      "name": "name",
      "outputs": [
        {
          "internalType": "string",
          "name": "",
          "type": "string"
        }
      ],
      "payable": false,
      "stateMutability": "view",
      "type": "function"
    },
    {
      "constant": false,
      "inputs": [],
      "name": "getItems",
      "outputs": [
        {
          "components": [
            {
              "internalType": "uint256",
              "name": "id",
              "type": "uint256"
            },
            {
              "internalType": "string",
              "name": "name",
              "type": "string"
            },
            {
              "internalType": "string",
              "name": "description",
              "type": "string"
            },
            {
              "internalType": "uint256",
              "name": "price",
              "type": "uint256"
            },
            {
              "internalType": "address payable",
              "name": "owner",
              "type": "address"
            },
            {
              "internalType": "address payable",
              "name": "buyer",
              "type": "address"
            },
            {
              "internalType": "bool",
              "name": "purchased",
              "type": "bool"
            },
            {
              "internalType": "bool",
              "name": "verified",
              "type": "bool"
            }
          ],
          "internalType": "struct Marketplace.Item[]",
          "name": "",
          "type": "tuple[]"
        }
      ],
      "payable": false,
      "stateMutability": "nonpayable",
      "type": "function"
    },
    {
      "constant": false,
      "inputs": [
        {
          "internalType": "string",
          "name": "_name",
          "type": "string"
        },
        {
          "internalType": "string",
          "name": "_description",
          "type": "string"
        },
        {
          "internalType": "uint256",
          "name": "_price",
          "type": "uint256"
        }
      ],
      "name": "createItem",
      "outputs": [],
      "payable": false,
      "stateMutability": "nonpayable",
      "type": "function"
    },
    {
      "constant": false,
      "inputs": [
        {
          "internalType": "uint256",
          "name": "_id",
          "type": "uint256"
        }
      ],
      "name": "purchaseItem",
      "outputs": [],
      "payable": true,
      "stateMutability": "payable",
      "type": "function"
    },
    {
      "constant": false,
      "inputs": [
        {
          "internalType": "uint256",
          "name": "_id",
          "type": "uint256"
        }
      ],
      "name": "verifyPurchase",
      "outputs": [],
      "payable": true,
      "stateMutability": "payable",
      "type": "function"
    },
    {
      "constant": false,
      "inputs": [
        {
          "internalType": "uint256",
          "name": "_id",
          "type": "uint256"
        }
      ],
      "name": "deleteItem",
      "outputs": [],
      "payable": false,
      "stateMutability": "nonpayable",
      "type": "function"
    }
  ],
  "bytecode": "0x608060405260006001553480156200001657600080fd5b506040518060400160405280600b81526020017f4d61726b6574706c61636500000000000000000000000000000000000000000081525060009080519060200190620000649291906200006b565b506200011a565b828054600181600116156101000203166002900490600052602060002090601f016020900481019282601f10620000ae57805160ff1916838001178555620000df565b82800160010185558215620000df579182015b82811115620000de578251825591602001919060010190620000c1565b5b509050620000ee9190620000f2565b5090565b6200011791905b8082111562000113576000816000905550600101620000f9565b5090565b90565b612365806200012a6000396000f3fe6080604052600436106100705760003560e01c8063654fc8331161004e578063654fc833146100f4578063baca263e1461011d578063bfb231d214610139578063d38ea5bf1461017d57610070565b806306fdde0314610075578063410d59cc146100a05780635fb6161c146100cb575b600080fd5b34801561008157600080fd5b5061008a610199565b6040516100979190611f6c565b60405180910390f35b3480156100ac57600080fd5b506100b5610237565b6040516100c29190611f4a565b60405180910390f35b3480156100d757600080fd5b506100f260048036036100ed91908101906119eb565b61050e565b005b34801561010057600080fd5b5061011b60048036036101169190810190611a6a565b610798565b005b61013760048036036101329190810190611a6a565b610b06565b005b34801561014557600080fd5b50610160600480360361015b9190810190611a6a565b611093565b60405161017498979695949392919061211a565b60405180910390f35b61019760048036036101929190810190611a6a565b611265565b005b60008054600181600116156101000203166002900480601f01602080910402602001604051908101604052809291908181526020018280546001816001161561010002031660029004801561022f5780601f106102045761010080835404028352916020019161022f565b820191906000526020600020905b81548152906001019060200180831161021257829003601f168201915b505050505081565b60608060015460405190808252806020026020018201604052801561027657816020015b6102636117ab565b81526020019060019003908161025b5790505b50905060008090505b60015481101561050657600260008281526020019081526020016000206040518061010001604052908160008201548152602001600182018054600181600116156101000203166002900480601f01602080910402602001604051908101604052809291908181526020018280546001816001161561010002031660029004801561034b5780601f106103205761010080835404028352916020019161034b565b820191906000526020600020905b81548152906001019060200180831161032e57829003601f168201915b50505050508152602001600282018054600181600116156101000203166002900480601f0160208091040260200160405190810160405280929190818152602001828054600181600116156101000203166002900480156103ed5780601f106103c2576101008083540402835291602001916103ed565b820191906000526020600020905b8154815290600101906020018083116103d057829003601f168201915b50505050508152602001600382015481526020016004820160009054906101000a900473ffffffffffffffffffffffffffffffffffffffff1673ffffffffffffffffffffffffffffffffffffffff1673ffffffffffffffffffffffffffffffffffffffff1681526020016005820160009054906101000a900473ffffffffffffffffffffffffffffffffffffffff1673ffffffffffffffffffffffffffffffffffffffff1673ffffffffffffffffffffffffffffffffffffffff1681526020016005820160149054906101000a900460ff161515151581526020016005820160159054906101000a900460ff1615151515815250508282815181106104ee57fe5b6020026020010181905250808060010191505061027f565b508091505090565b6000835111610552576040517f08c379a00000000000000000000000000000000000000000000000000000000081526004016105499061202e565b60405180910390fd5b60008111610595576040517f08c379a000000000000000000000000000000000000000000000000000000000815260040161058c9061202e565b60405180910390fd5b60405180610100016040528060015481526020018481526020018381526020018281526020013373ffffffffffffffffffffffffffffffffffffffff168152602001600073ffffffffffffffffffffffffffffffffffffffff1681526020016000151581526020016000151581525060026000600154815260200190815260200160002060008201518160000155602082015181600101908051906020019061063f929190611820565b50604082015181600201908051906020019061065c929190611820565b506060820151816003015560808201518160040160006101000a81548173ffffffffffffffffffffffffffffffffffffffff021916908373ffffffffffffffffffffffffffffffffffffffff16021790555060a08201518160050160006101000a81548173ffffffffffffffffffffffffffffffffffffffff021916908373ffffffffffffffffffffffffffffffffffffffff16021790555060c08201518160050160146101000a81548160ff02191690831515021790555060e08201518160050160156101000a81548160ff0219169083151502179055509050506001600081548092919060010191905055507fb20c2d8711077550b6ab982e22f2ef42cfd654829f1d6949fc5d34edc6aeb65e60015484848433600080600060405161078b98979695949392919061208e565b60405180910390a1505050565b6107a06118a0565b600260008381526020019081526020016000206040518061010001604052908160008201548152602001600182018054600181600116156101000203166002900480601f0160208091040260200160405190810160405280929190818152602001828054600181600116156101000203166002900480156108625780601f1061083757610100808354040283529160200191610862565b820191906000526020600020905b81548152906001019060200180831161084557829003601f168201915b50505050508152602001600282018054600181600116156101000203166002900480601f0160208091040260200160405190810160405280929190818152602001828054600181600116156101000203166002900480156109045780601f106108d957610100808354040283529160200191610904565b820191906000526020600020905b8154815290600101906020018083116108e757829003601f168201915b50505050508152602001600382015481526020016004820160009054906101000a900473ffffffffffffffffffffffffffffffffffffffff1673ffffffffffffffffffffffffffffffffffffffff1673ffffffffffffffffffffffffffffffffffffffff1681526020016005820160009054906101000a900473ffffffffffffffffffffffffffffffffffffffff1673ffffffffffffffffffffffffffffffffffffffff1673ffffffffffffffffffffffffffffffffffffffff1681526020016005820160149054906101000a900460ff161515151581526020016005820160159054906101000a900460ff1615151515815250509050806080015173ffffffffffffffffffffffffffffffffffffffff163373ffffffffffffffffffffffffffffffffffffffff1614610a3757600080fd5b8060c0015115610a4657600080fd5b60026000838152602001908152602001600020600080820160009055600182016000610a729190611915565b600282016000610a829190611915565b60038201600090556004820160006101000a81549073ffffffffffffffffffffffffffffffffffffffff02191690556005820160006101000a81549073ffffffffffffffffffffffffffffffffffffffff02191690556005820160146101000a81549060ff02191690556005820160156101000a81549060ff021916905550505050565b610b0e6118a0565b600260008381526020019081526020016000206040518061010001604052908160008201548152602001600182018054600181600116156101000203166002900480601f016020809104026020016040519081016040528092919081815260200182805460018160011615610100020316600290048015610bd05780601f10610ba557610100808354040283529160200191610bd0565b820191906000526020600020905b815481529060010190602001808311610bb357829003601f168201915b50505050508152602001600282018054600181600116156101000203166002900480601f016020809104026020016040519081016040528092919081815260200182805460018160011615610100020316600290048015610c725780601f10610c4757610100808354040283529160200191610c72565b820191906000526020600020905b815481529060010190602001808311610c5557829003601f168201915b50505050508152602001600382015481526020016004820160009054906101000a900473ffffffffffffffffffffffffffffffffffffffff1673ffffffffffffffffffffffffffffffffffffffff1673ffffffffffffffffffffffffffffffffffffffff1681526020016005820160009054906101000a900473ffffffffffffffffffffffffffffffffffffffff1673ffffffffffffffffffffffffffffffffffffffff1673ffffffffffffffffffffffffffffffffffffffff1681526020016005820160149054906101000a900460ff161515151581526020016005820160159054906101000a900460ff16151515158152505090508060a0015173ffffffffffffffffffffffffffffffffffffffff163373ffffffffffffffffffffffffffffffffffffffff1614610ddb576040517f08c379a0000000000000000000000000000000000000000000000000000000008152600401610dd290611fee565b60405180910390fd5b8060c001518015610dee57508060e00151155b610e2d576040517f08c379a0000000000000000000000000000000000000000000000000000000008152600401610e249061200e565b60405180910390fd5b6000816060015111610e74576040517f08c379a0000000000000000000000000000000000000000000000000000000008152600401610e6b9061206e565b60405180910390fd5b60018160c001901515908115158152505060018160e001901515908115158152505060008160800151905033826080019073ffffffffffffffffffffffffffffffffffffffff16908173ffffffffffffffffffffffffffffffffffffffff168152505060008260a0019073ffffffffffffffffffffffffffffffffffffffff16908173ffffffffffffffffffffffffffffffffffffffff16815250508160026000858152602001908152602001600020600082015181600001556020820151816001019080519060200190610f4a929190611820565b506040820151816002019080519060200190610f67929190611820565b506060820151816003015560808201518160040160006101000a81548173ffffffffffffffffffffffffffffffffffffffff021916908373ffffffffffffffffffffffffffffffffffffffff16021790555060a08201518160050160006101000a81548173ffffffffffffffffffffffffffffffffffffffff021916908373ffffffffffffffffffffffffffffffffffffffff16021790555060c08201518160050160146101000a81548160ff02191690831515021790555060e08201518160050160156101000a81548160ff0219169083151502179055509050508073ffffffffffffffffffffffffffffffffffffffff166108fc83606001519081150290604051600060405180830381858888f1935050505015801561108d573d6000803e3d6000fd5b50505050565b6002602052806000526040600020600091509050806000015490806001018054600181600116156101000203166002900480601f0160208091040260200160405190810160405280929190818152602001828054600181600116156101000203166002900480156111455780601f1061111a57610100808354040283529160200191611145565b820191906000526020600020905b81548152906001019060200180831161112857829003601f168201915b505050505090806002018054600181600116156101000203166002900480601f0160208091040260200160405190810160405280929190818152602001828054600181600116156101000203166002900480156111e35780601f106111b8576101008083540402835291602001916111e3565b820191906000526020600020905b8154815290600101906020018083116111c657829003601f168201915b5050505050908060030154908060040160009054906101000a900473ffffffffffffffffffffffffffffffffffffffff16908060050160009054906101000a900473ffffffffffffffffffffffffffffffffffffffff16908060050160149054906101000a900460ff16908060050160159054906101000a900460ff16905088565b61126d6118a0565b600260008381526020019081526020016000206040518061010001604052908160008201548152602001600182018054600181600116156101000203166002900480601f01602080910402602001604051908101604052809291908181526020018280546001816001161561010002031660029004801561132f5780601f106113045761010080835404028352916020019161132f565b820191906000526020600020905b81548152906001019060200180831161131257829003601f168201915b50505050508152602001600282018054600181600116156101000203166002900480601f0160208091040260200160405190810160405280929190818152602001828054600181600116156101000203166002900480156113d15780601f106113a6576101008083540402835291602001916113d1565b820191906000526020600020905b8154815290600101906020018083116113b457829003601f168201915b50505050508152602001600382015481526020016004820160009054906101000a900473ffffffffffffffffffffffffffffffffffffffff1673ffffffffffffffffffffffffffffffffffffffff1673ffffffffffffffffffffffffffffffffffffffff1681526020016005820160009054906101000a900473ffffffffffffffffffffffffffffffffffffffff1673ffffffffffffffffffffffffffffffffffffffff1673ffffffffffffffffffffffffffffffffffffffff1681526020016005820160149054906101000a900460ff161515151581526020016005820160159054906101000a900460ff1615151515815250509050806060015134101561150f576040517f08c379a000000000000000000000000000000000000000000000000000000000815260040161150690611f8e565b60405180910390fd5b600081600001511015801561152a5750600154816000015111155b611569576040517f08c379a000000000000000000000000000000000000000000000000000000000815260040161156090611fae565b60405180910390fd5b8060c00151156115ae576040517f08c379a00000000000000000000000000000000000000000000000000000000081526004016115a590611fce565b60405180910390fd5b3373ffffffffffffffffffffffffffffffffffffffff16816080015173ffffffffffffffffffffffffffffffffffffffff161415611621576040517f08c379a00000000000000000000000000000000000000000000000000000000081526004016116189061204e565b60405180910390fd5b60018160c001901515908115158152505034816060018181525050338160a0019073ffffffffffffffffffffffffffffffffffffffff16908173ffffffffffffffffffffffffffffffffffffffff168152505080600260008481526020019081526020016000206000820151816000015560208201518160010190805190602001906116ae929190611820565b5060408201518160020190805190602001906116cb929190611820565b506060820151816003015560808201518160040160006101000a81548173ffffffffffffffffffffffffffffffffffffffff021916908373ffffffffffffffffffffffffffffffffffffffff16021790555060a08201518160050160006101000a81548173ffffffffffffffffffffffffffffffffffffffff021916908373ffffffffffffffffffffffffffffffffffffffff16021790555060c08201518160050160146101000a81548160ff02191690831515021790555060e08201518160050160156101000a81548160ff0219169083151502179055509050505050565b60405180610100016040528060008152602001606081526020016060815260200160008152602001600073ffffffffffffffffffffffffffffffffffffffff168152602001600073ffffffffffffffffffffffffffffffffffffffff1681526020016000151581526020016000151581525090565b828054600181600116156101000203166002900490600052602060002090601f016020900481019282601f1061186157805160ff191683800117855561188f565b8280016001018555821561188f579182015b8281111561188e578251825591602001919060010190611873565b5b50905061189c919061195d565b5090565b60405180610100016040528060008152602001606081526020016060815260200160008152602001600073ffffffffffffffffffffffffffffffffffffffff168152602001600073ffffffffffffffffffffffffffffffffffffffff1681526020016000151581526020016000151581525090565b50805460018160011615610100020316600290046000825580601f1061193b575061195a565b601f016020900490600052602060002090810190611959919061195d565b5b50565b61197f91905b8082111561197b576000816000905550600101611963565b5090565b90565b600082601f83011261199357600080fd5b81356119a66119a1826121d3565b6121a6565b915080825260208301602083018583830111156119c257600080fd5b6119cd8382846122b8565b50505092915050565b6000813590506119e58161230b565b92915050565b600080600060608486031215611a0057600080fd5b600084013567ffffffffffffffff811115611a1a57600080fd5b611a2686828701611982565b935050602084013567ffffffffffffffff811115611a4357600080fd5b611a4f86828701611982565b9250506040611a60868287016119d6565b9150509250925092565b600060208284031215611a7c57600080fd5b6000611a8a848285016119d6565b91505092915050565b6000611a9f8383611e75565b905092915050565b611ab081612270565b82525050565b611abf81612270565b82525050565b6000611ad08261220f565b611ada818561223d565b935083602082028501611aec856121ff565b8060005b85811015611b285784840389528151611b098582611a93565b9450611b1483612230565b925060208a01995050600181019050611af0565b50829750879550505050505092915050565b611b4381612282565b82525050565b611b5281612282565b82525050565b6000611b6382612225565b611b6d818561225f565b9350611b7d8185602086016122c7565b611b86816122fa565b840191505092915050565b6000611b9c8261221a565b611ba6818561224e565b9350611bb68185602086016122c7565b611bbf816122fa565b840191505092915050565b6000611bd58261221a565b611bdf818561225f565b9350611bef8185602086016122c7565b611bf8816122fa565b840191505092915050565b6000611c10602a8361225f565b91507f7468657265206d75737420626520656e6f756768206574686572206f6e206d6560008301527f73736167652073656e74000000000000000000000000000000000000000000006020830152604082019050919050565b6000611c7660198361225f565b91507f6974656d206d757374206861766520612076616c6964206964000000000000006000830152602082019050919050565b6000611cb660298361225f565b91507f6974656d20646f6573206e6f74206861766520746f206265207075726368617360008301527f6564206265666f726500000000000000000000000000000000000000000000006020830152604082019050919050565b6000611d1c601d8361225f565b91507f6d73672e73656e646572206d757374206265206974656d2062757965720000006000830152602082019050919050565b6000611d5c60278361225f565b91507f6974656d206d7573742062652070757263686173656420627574206e6f74207660008301527f65726966696564000000000000000000000000000000000000000000000000006020830152604082019050919050565b6000611dc260008361225f565b9150600082019050919050565b6000611ddc601e8361225f565b91507f73656c6c65722063616e6e6f742062757920697473206f776e206974656d00006000830152602082019050919050565b6000611e1c60238361225f565b91507f6974656d207072696365206d75737420626520756e7369676e656420696e746560008301527f67657200000000000000000000000000000000000000000000000000000000006020830152604082019050919050565b600061010083016000830151611e8e6000860182611f2c565b5060208301518482036020860152611ea68282611b91565b91505060408301518482036040860152611ec08282611b91565b9150506060830151611ed56060860182611f2c565b506080830151611ee86080860182611aa7565b5060a0830151611efb60a0860182611aa7565b5060c0830151611f0e60c0860182611b3a565b5060e0830151611f2160e0860182611b3a565b508091505092915050565b611f35816122ae565b82525050565b611f44816122ae565b82525050565b60006020820190508181036000830152611f648184611ac5565b905092915050565b60006020820190508181036000830152611f868184611bca565b905092915050565b60006020820190508181036000830152611fa781611c03565b9050919050565b60006020820190508181036000830152611fc781611c69565b9050919050565b60006020820190508181036000830152611fe781611ca9565b9050919050565b6000602082019050818103600083015261200781611d0f565b9050919050565b6000602082019050818103600083015261202781611d4f565b9050919050565b6000602082019050818103600083015261204781611db5565b9050919050565b6000602082019050818103600083015261206781611dcf565b9050919050565b6000602082019050818103600083015261208781611e0f565b9050919050565b6000610100820190506120a4600083018b611f3b565b81810360208301526120b6818a611b58565b905081810360408301526120ca8189611b58565b90506120d96060830188611f3b565b6120e66080830187611ab6565b6120f360a0830186611ab6565b61210060c0830185611b49565b61210d60e0830184611b49565b9998505050505050505050565b600061010082019050612130600083018b611f3b565b8181036020830152612142818a611bca565b905081810360408301526121568189611bca565b90506121656060830188611f3b565b6121726080830187611ab6565b61217f60a0830186611ab6565b61218c60c0830185611b49565b61219960e0830184611b49565b9998505050505050505050565b6000604051905081810181811067ffffffffffffffff821117156121c957600080fd5b8060405250919050565b600067ffffffffffffffff8211156121ea57600080fd5b601f19601f8301169050602081019050919050565b6000819050602082019050919050565b600081519050919050565b600081519050919050565b600081519050919050565b6000602082019050919050565b600082825260208201905092915050565b600082825260208201905092915050565b600082825260208201905092915050565b600061227b8261228e565b9050919050565b60008115159050919050565b600073ffffffffffffffffffffffffffffffffffffffff82169050919050565b6000819050919050565b82818337600083830152505050565b60005b838110156122e55780820151818401526020810190506122ca565b838111156122f4576000848401525b50505050565b6000601f19601f8301169050919050565b612314816122ae565b811461231f57600080fd5b5056fea365627a7a72315820a5d5136706b6b452366ed3d441ed844cbd4a5419b7623fca2b9734bc087a516e6c6578706572696d656e74616cf564736f6c63430005100040",
  "source": "pragma solidity ^0.5.0;\npragma experimental ABIEncoderV2;\n\n\ncontract Marketplace {\n    string public name;\n    uint itemCount = 0;\n    mapping(uint => Item) public items;\n\n    struct Item {\n        uint id;\n        string name;\n        string description;\n        uint price;\n        address payable owner;\n        address payable buyer;\n        bool purchased;\n        bool verified;\n    }\n    /**\n     ** Events\n     **/\n    event ItemCreated(\n        uint id,\n        string name,\n        string description,\n        uint price,\n        address payable owner,\n        address payable buyer,\n        bool purchased,\n        bool verified\n    );\n\n    constructor() public {\n        name = \"Marketplace\";\n    }\n\n    function getItems() public returns (Item[] memory) {\n        Item[] memory ret = new Item[](itemCount);\n        for (uint i = 0; i < itemCount; i++) {\n            ret[i] = items[i];\n        }\n        return ret;\n    }\n\n    function createItem(\n        string memory _name,\n        string memory _description,\n        uint256 _price\n    ) public {\n        require(bytes(_name).length > 0, \"\");\n        require(_price > 0, \"\");\n\n        items[itemCount] = Item(\n            itemCount,\n            _name,\n            _description,\n            _price,\n            msg.sender,\n            address(0),\n            false,\n            false\n        );\n        itemCount++;\n        emit ItemCreated(\n            itemCount,\n            _name,\n            _description,\n            _price,\n            msg.sender,\n            address(0),\n            false,\n            false\n        );\n    }\n\n    function purchaseItem(uint _id) public payable {\n        // fetch the item\n        Item memory _item = items[_id];\n        require(\n            msg.value >= _item.price,\n            \"there must be enough ether on message sent\"\n        );\n        require(\n            _item.id >= 0 && _item.id <= itemCount,\n            \"item must have a valid id\"\n        );\n        require(!_item.purchased, \"item does not have to be purchased before\");\n        require(_item.owner != msg.sender, \"seller cannot buy its own item\");\n        _item.purchased = true;\n        _item.price = msg.value;\n        _item.buyer = msg.sender;\n        items[_id] = _item;\n    }\n\n    function verifyPurchase(uint _id) public payable {\n        Item memory _item = items[_id];\n        require(msg.sender == _item.buyer, \"msg.sender must be item buyer\");\n        require(\n            _item.purchased && !_item.verified,\n            \"item must be purchased but not verified\"\n        );\n        require(_item.price > 0, \"item price must be unsigned integer\");\n        _item.purchased = true;\n        _item.verified = true;\n        address payable _seller = _item.owner;\n        _item.owner = msg.sender;\n        _item.buyer = address(0);\n        items[_id] = _item;\n        _seller.transfer(_item.price);\n    }\n\n    function deleteItem(uint _id) public {\n        Item memory _item = items[_id];\n        require(msg.sender == _item.owner);\n        require(!_item.purchased);\n        delete items[_id];\n    }\n}\n",
  "sourcePath": "/Users/berkeatac/Desktop/escrow_dapp/contracts/Marketplace.sol",
  "compiler": {
    "name": "solc",
    "version": "0.5.16+commit.9c3226ce.Emscripten.clang"
  },
  "schemaVersion": "3.1.0",
  "updatedAt": "2020-05-12T21:17:22.409Z",
  "networkType": "ethereum",
  "devdoc": {
    "methods": {}
  },
  "userdoc": {
    "methods": {}
  }
}