{
  "contractName": "Marketplace",
  "abi": [
    {
      "inputs": [],
      "payable": false,
      "stateMutability": "nonpayable",
      "type": "constructor"
    },
    {
      "anonymous": false,
      "inputs": [
        {
          "indexed": false,
          "internalType": "uint256",
          "name": "id",
          "type": "uint256"
        },
        {
          "indexed": false,
          "internalType": "string",
          "name": "name",
          "type": "string"
        },
        {
          "indexed": false,
          "internalType": "string",
          "name": "description",
          "type": "string"
        },
        {
          "indexed": false,
          "internalType": "uint256",
          "name": "price",
          "type": "uint256"
        },
        {
          "indexed": false,
          "internalType": "address payable",
          "name": "owner",
          "type": "address"
        },
        {
          "indexed": false,
          "internalType": "address payable",
          "name": "buyer",
          "type": "address"
        },
        {
          "indexed": false,
          "internalType": "bool",
          "name": "purchased",
          "type": "bool"
        },
        {
          "indexed": false,
          "internalType": "bool",
          "name": "verified",
          "type": "bool"
        }
      ],
      "name": "ItemCreated",
      "type": "event"
    },
    {
      "constant": true,
      "inputs": [
        {
          "internalType": "uint256",
          "name": "",
          "type": "uint256"
        }
      ],
      "name": "items",
      "outputs": [
        {
          "internalType": "uint256",
          "name": "id",
          "type": "uint256"
        },
        {
          "internalType": "string",
          "name": "name",
          "type": "string"
        },
        {
          "internalType": "string",
          "name": "description",
          "type": "string"
        },
        {
          "internalType": "uint256",
          "name": "price",
          "type": "uint256"
        },
        {
          "internalType": "address payable",
          "name": "owner",
          "type": "address"
        },
        {
          "internalType": "address payable",
          "name": "buyer",
          "type": "address"
        },
        {
          "internalType": "bool",
          "name": "purchased",
          "type": "bool"
        },
        {
          "internalType": "bool",
          "name": "verified",
          "type": "bool"
        }
      ],
      "payable": false,
      "stateMutability": "view",
      "type": "function"
    },
    {
      "constant": true,
      "inputs": [],
      "name": "name",
      "outputs": [
        {
          "internalType": "string",
          "name": "",
          "type": "string"
        }
      ],
      "payable": false,
      "stateMutability": "view",
      "type": "function"
    },
    {
      "constant": false,
      "inputs": [],
      "name": "getItems",
      "outputs": [
        {
          "components": [
            {
              "internalType": "uint256",
              "name": "id",
              "type": "uint256"
            },
            {
              "internalType": "string",
              "name": "name",
              "type": "string"
            },
            {
              "internalType": "string",
              "name": "description",
              "type": "string"
            },
            {
              "internalType": "uint256",
              "name": "price",
              "type": "uint256"
            },
            {
              "internalType": "address payable",
              "name": "owner",
              "type": "address"
            },
            {
              "internalType": "address payable",
              "name": "buyer",
              "type": "address"
            },
            {
              "internalType": "bool",
              "name": "purchased",
              "type": "bool"
            },
            {
              "internalType": "bool",
              "name": "verified",
              "type": "bool"
            }
          ],
          "internalType": "struct Marketplace.Item[]",
          "name": "",
          "type": "tuple[]"
        }
      ],
      "payable": false,
      "stateMutability": "nonpayable",
      "type": "function"
    },
    {
      "constant": false,
      "inputs": [
        {
          "internalType": "string",
          "name": "_name",
          "type": "string"
        },
        {
          "internalType": "string",
          "name": "_description",
          "type": "string"
        },
        {
          "internalType": "uint256",
          "name": "_price",
          "type": "uint256"
        }
      ],
      "name": "createItem",
      "outputs": [],
      "payable": false,
      "stateMutability": "nonpayable",
      "type": "function"
    },
    {
      "constant": false,
      "inputs": [
        {
          "internalType": "uint256",
          "name": "_id",
          "type": "uint256"
        }
      ],
      "name": "purchaseItem",
      "outputs": [],
      "payable": true,
      "stateMutability": "payable",
      "type": "function"
    },
    {
      "constant": false,
      "inputs": [
        {
          "internalType": "uint256",
          "name": "_id",
          "type": "uint256"
        }
      ],
      "name": "verifyPurchase",
      "outputs": [],
      "payable": true,
      "stateMutability": "payable",
      "type": "function"
    },
    {
      "constant": false,
      "inputs": [
        {
          "internalType": "uint256",
          "name": "_id",
          "type": "uint256"
        }
      ],
      "name": "cancelPurchase",
      "outputs": [],
      "payable": true,
      "stateMutability": "payable",
      "type": "function"
    },
    {
      "constant": false,
      "inputs": [
        {
          "internalType": "uint256",
          "name": "_id",
          "type": "uint256"
        }
      ],
      "name": "deleteItem",
      "outputs": [],
      "payable": false,
      "stateMutability": "nonpayable",
      "type": "function"
    }
  ],
  "bytecode": "0x608060405260006001553480156200001657600080fd5b506040518060400160405280600b81526020017f4d61726b6574706c61636500000000000000000000000000000000000000000081525060009080519060200190620000649291906200006b565b506200011a565b828054600181600116156101000203166002900490600052602060002090601f016020900481019282601f10620000ae57805160ff1916838001178555620000df565b82800160010185558215620000df579182015b82811115620000de578251825591602001919060010190620000c1565b5b509050620000ee9190620000f2565b5090565b6200011791905b8082111562000113576000816000905550600101620000f9565b5090565b90565b612957806200012a6000396000f3fe60806040526004361061007b5760003560e01c8063baca263e1161004e578063baca263e14610128578063bfb231d214610144578063c3634ddc14610188578063d38ea5bf146101a45761007b565b806306fdde0314610080578063410d59cc146100ab5780635fb6161c146100d6578063654fc833146100ff575b600080fd5b34801561008c57600080fd5b506100956101c0565b6040516100a2919061251e565b60405180910390f35b3480156100b757600080fd5b506100c061025e565b6040516100cd91906124fc565b60405180910390f35b3480156100e257600080fd5b506100fd60048036036100f89190810190611ef7565b610535565b005b34801561010b57600080fd5b5061012660048036036101219190810190611f76565b6107bf565b005b610142600480360361013d9190810190611f76565b610b2d565b005b34801561015057600080fd5b5061016b60048036036101669190810190611f76565b61104a565b60405161017f98979695949392919061270c565b60405180910390f35b6101a2600480360361019d9190810190611f76565b61121c565b005b6101be60048036036101b99190810190611f76565b611771565b005b60008054600181600116156101000203166002900480601f0160208091040260200160405190810160405280929190818152602001828054600181600116156101000203166002900480156102565780601f1061022b57610100808354040283529160200191610256565b820191906000526020600020905b81548152906001019060200180831161023957829003601f168201915b505050505081565b60608060015460405190808252806020026020018201604052801561029d57816020015b61028a611cb7565b8152602001906001900390816102825790505b50905060008090505b60015481101561052d57600260008281526020019081526020016000206040518061010001604052908160008201548152602001600182018054600181600116156101000203166002900480601f0160208091040260200160405190810160405280929190818152602001828054600181600116156101000203166002900480156103725780601f1061034757610100808354040283529160200191610372565b820191906000526020600020905b81548152906001019060200180831161035557829003601f168201915b50505050508152602001600282018054600181600116156101000203166002900480601f0160208091040260200160405190810160405280929190818152602001828054600181600116156101000203166002900480156104145780601f106103e957610100808354040283529160200191610414565b820191906000526020600020905b8154815290600101906020018083116103f757829003601f168201915b50505050508152602001600382015481526020016004820160009054906101000a900473ffffffffffffffffffffffffffffffffffffffff1673ffffffffffffffffffffffffffffffffffffffff1673ffffffffffffffffffffffffffffffffffffffff1681526020016005820160009054906101000a900473ffffffffffffffffffffffffffffffffffffffff1673ffffffffffffffffffffffffffffffffffffffff1673ffffffffffffffffffffffffffffffffffffffff1681526020016005820160149054906101000a900460ff161515151581526020016005820160159054906101000a900460ff16151515158152505082828151811061051557fe5b602002602001018190525080806001019150506102a6565b508091505090565b6000835111610579576040517f08c379a000000000000000000000000000000000000000000000000000000000815260040161057090612600565b60405180910390fd5b600081116105bc576040517f08c379a00000000000000000000000000000000000000000000000000000000081526004016105b390612600565b60405180910390fd5b60405180610100016040528060015481526020018481526020018381526020018281526020013373ffffffffffffffffffffffffffffffffffffffff168152602001600073ffffffffffffffffffffffffffffffffffffffff16815260200160001515815260200160001515815250600260006001548152602001908152602001600020600082015181600001556020820151816001019080519060200190610666929190611d2c565b506040820151816002019080519060200190610683929190611d2c565b506060820151816003015560808201518160040160006101000a81548173ffffffffffffffffffffffffffffffffffffffff021916908373ffffffffffffffffffffffffffffffffffffffff16021790555060a08201518160050160006101000a81548173ffffffffffffffffffffffffffffffffffffffff021916908373ffffffffffffffffffffffffffffffffffffffff16021790555060c08201518160050160146101000a81548160ff02191690831515021790555060e08201518160050160156101000a81548160ff0219169083151502179055509050506001600081548092919060010191905055507fb20c2d8711077550b6ab982e22f2ef42cfd654829f1d6949fc5d34edc6aeb65e6001548484843360008060006040516107b2989796959493929190612680565b60405180910390a1505050565b6107c7611dac565b600260008381526020019081526020016000206040518061010001604052908160008201548152602001600182018054600181600116156101000203166002900480601f0160208091040260200160405190810160405280929190818152602001828054600181600116156101000203166002900480156108895780601f1061085e57610100808354040283529160200191610889565b820191906000526020600020905b81548152906001019060200180831161086c57829003601f168201915b50505050508152602001600282018054600181600116156101000203166002900480601f01602080910402602001604051908101604052809291908181526020018280546001816001161561010002031660029004801561092b5780601f106109005761010080835404028352916020019161092b565b820191906000526020600020905b81548152906001019060200180831161090e57829003601f168201915b50505050508152602001600382015481526020016004820160009054906101000a900473ffffffffffffffffffffffffffffffffffffffff1673ffffffffffffffffffffffffffffffffffffffff1673ffffffffffffffffffffffffffffffffffffffff1681526020016005820160009054906101000a900473ffffffffffffffffffffffffffffffffffffffff1673ffffffffffffffffffffffffffffffffffffffff1673ffffffffffffffffffffffffffffffffffffffff1681526020016005820160149054906101000a900460ff161515151581526020016005820160159054906101000a900460ff1615151515815250509050806080015173ffffffffffffffffffffffffffffffffffffffff163373ffffffffffffffffffffffffffffffffffffffff1614610a5e57600080fd5b8060c0015115610a6d57600080fd5b60026000838152602001908152602001600020600080820160009055600182016000610a999190611e21565b600282016000610aa99190611e21565b60038201600090556004820160006101000a81549073ffffffffffffffffffffffffffffffffffffffff02191690556005820160006101000a81549073ffffffffffffffffffffffffffffffffffffffff02191690556005820160146101000a81549060ff02191690556005820160156101000a81549060ff021916905550505050565b610b35611dac565b600260008381526020019081526020016000206040518061010001604052908160008201548152602001600182018054600181600116156101000203166002900480601f016020809104026020016040519081016040528092919081815260200182805460018160011615610100020316600290048015610bf75780601f10610bcc57610100808354040283529160200191610bf7565b820191906000526020600020905b815481529060010190602001808311610bda57829003601f168201915b50505050508152602001600282018054600181600116156101000203166002900480601f016020809104026020016040519081016040528092919081815260200182805460018160011615610100020316600290048015610c995780601f10610c6e57610100808354040283529160200191610c99565b820191906000526020600020905b815481529060010190602001808311610c7c57829003601f168201915b50505050508152602001600382015481526020016004820160009054906101000a900473ffffffffffffffffffffffffffffffffffffffff1673ffffffffffffffffffffffffffffffffffffffff1673ffffffffffffffffffffffffffffffffffffffff1681526020016005820160009054906101000a900473ffffffffffffffffffffffffffffffffffffffff1673ffffffffffffffffffffffffffffffffffffffff1673ffffffffffffffffffffffffffffffffffffffff1681526020016005820160149054906101000a900460ff161515151581526020016005820160159054906101000a900460ff16151515158152505090508060a0015173ffffffffffffffffffffffffffffffffffffffff163373ffffffffffffffffffffffffffffffffffffffff1614610e02576040517f08c379a0000000000000000000000000000000000000000000000000000000008152600401610df9906125a0565b60405180910390fd5b8060c001518015610e1557508060e00151155b610e54576040517f08c379a0000000000000000000000000000000000000000000000000000000008152600401610e4b906125e0565b60405180910390fd5b600081606001511015610e9c576040517f08c379a0000000000000000000000000000000000000000000000000000000008152600401610e9390612660565b60405180910390fd5b60018160c001901515908115158152505060018160e00190151590811515815250506000816080015190508160026000858152602001908152602001600020600082015181600001556020820151816001019080519060200190610f01929190611d2c565b506040820151816002019080519060200190610f1e929190611d2c565b506060820151816003015560808201518160040160006101000a81548173ffffffffffffffffffffffffffffffffffffffff021916908373ffffffffffffffffffffffffffffffffffffffff16021790555060a08201518160050160006101000a81548173ffffffffffffffffffffffffffffffffffffffff021916908373ffffffffffffffffffffffffffffffffffffffff16021790555060c08201518160050160146101000a81548160ff02191690831515021790555060e08201518160050160156101000a81548160ff0219169083151502179055509050508073ffffffffffffffffffffffffffffffffffffffff166108fc83606001519081150290604051600060405180830381858888f19350505050158015611044573d6000803e3d6000fd5b50505050565b6002602052806000526040600020600091509050806000015490806001018054600181600116156101000203166002900480601f0160208091040260200160405190810160405280929190818152602001828054600181600116156101000203166002900480156110fc5780601f106110d1576101008083540402835291602001916110fc565b820191906000526020600020905b8154815290600101906020018083116110df57829003601f168201915b505050505090806002018054600181600116156101000203166002900480601f01602080910402602001604051908101604052809291908181526020018280546001816001161561010002031660029004801561119a5780601f1061116f5761010080835404028352916020019161119a565b820191906000526020600020905b81548152906001019060200180831161117d57829003601f168201915b5050505050908060030154908060040160009054906101000a900473ffffffffffffffffffffffffffffffffffffffff16908060050160009054906101000a900473ffffffffffffffffffffffffffffffffffffffff16908060050160149054906101000a900460ff16908060050160159054906101000a900460ff16905088565b611224611dac565b600260008381526020019081526020016000206040518061010001604052908160008201548152602001600182018054600181600116156101000203166002900480601f0160208091040260200160405190810160405280929190818152602001828054600181600116156101000203166002900480156112e65780601f106112bb576101008083540402835291602001916112e6565b820191906000526020600020905b8154815290600101906020018083116112c957829003601f168201915b50505050508152602001600282018054600181600116156101000203166002900480601f0160208091040260200160405190810160405280929190818152602001828054600181600116156101000203166002900480156113885780601f1061135d57610100808354040283529160200191611388565b820191906000526020600020905b81548152906001019060200180831161136b57829003601f168201915b50505050508152602001600382015481526020016004820160009054906101000a900473ffffffffffffffffffffffffffffffffffffffff1673ffffffffffffffffffffffffffffffffffffffff1673ffffffffffffffffffffffffffffffffffffffff1681526020016005820160009054906101000a900473ffffffffffffffffffffffffffffffffffffffff1673ffffffffffffffffffffffffffffffffffffffff1673ffffffffffffffffffffffffffffffffffffffff1681526020016005820160149054906101000a900460ff161515151581526020016005820160159054906101000a900460ff16151515158152505090508060a0015173ffffffffffffffffffffffffffffffffffffffff163373ffffffffffffffffffffffffffffffffffffffff16146114f1576040517f08c379a00000000000000000000000000000000000000000000000000000000081526004016114e890612640565b60405180910390fd5b8060c00151801561150457508060e00151155b611543576040517f08c379a000000000000000000000000000000000000000000000000000000000815260040161153a906125c0565b60405180910390fd5b8060a0015173ffffffffffffffffffffffffffffffffffffffff163373ffffffffffffffffffffffffffffffffffffffff161461157f57600080fd5b8060c00151801561159257508060e00151155b61159b57600080fd5b60008160c001901515908115158152505060008160a0015190508073ffffffffffffffffffffffffffffffffffffffff166108fc83606001519081150290604051600060405180830381858888f193505050501580156115ff573d6000803e3d6000fd5b5060008260a0019073ffffffffffffffffffffffffffffffffffffffff16908173ffffffffffffffffffffffffffffffffffffffff16815250508160026000858152602001908152602001600020600082015181600001556020820151816001019080519060200190611673929190611d2c565b506040820151816002019080519060200190611690929190611d2c565b506060820151816003015560808201518160040160006101000a81548173ffffffffffffffffffffffffffffffffffffffff021916908373ffffffffffffffffffffffffffffffffffffffff16021790555060a08201518160050160006101000a81548173ffffffffffffffffffffffffffffffffffffffff021916908373ffffffffffffffffffffffffffffffffffffffff16021790555060c08201518160050160146101000a81548160ff02191690831515021790555060e08201518160050160156101000a81548160ff021916908315150217905550905050505050565b611779611dac565b600260008381526020019081526020016000206040518061010001604052908160008201548152602001600182018054600181600116156101000203166002900480601f01602080910402602001604051908101604052809291908181526020018280546001816001161561010002031660029004801561183b5780601f106118105761010080835404028352916020019161183b565b820191906000526020600020905b81548152906001019060200180831161181e57829003601f168201915b50505050508152602001600282018054600181600116156101000203166002900480601f0160208091040260200160405190810160405280929190818152602001828054600181600116156101000203166002900480156118dd5780601f106118b2576101008083540402835291602001916118dd565b820191906000526020600020905b8154815290600101906020018083116118c057829003601f168201915b50505050508152602001600382015481526020016004820160009054906101000a900473ffffffffffffffffffffffffffffffffffffffff1673ffffffffffffffffffffffffffffffffffffffff1673ffffffffffffffffffffffffffffffffffffffff1681526020016005820160009054906101000a900473ffffffffffffffffffffffffffffffffffffffff1673ffffffffffffffffffffffffffffffffffffffff1673ffffffffffffffffffffffffffffffffffffffff1681526020016005820160149054906101000a900460ff161515151581526020016005820160159054906101000a900460ff16151515158152505090508060600151341015611a1b576040517f08c379a0000000000000000000000000000000000000000000000000000000008152600401611a1290612540565b60405180910390fd5b6000816000015110158015611a365750600154816000015111155b611a75576040517f08c379a0000000000000000000000000000000000000000000000000000000008152600401611a6c90612560565b60405180910390fd5b8060c0015115611aba576040517f08c379a0000000000000000000000000000000000000000000000000000000008152600401611ab190612580565b60405180910390fd5b3373ffffffffffffffffffffffffffffffffffffffff16816080015173ffffffffffffffffffffffffffffffffffffffff161415611b2d576040517f08c379a0000000000000000000000000000000000000000000000000000000008152600401611b2490612620565b60405180910390fd5b60018160c001901515908115158152505034816060018181525050338160a0019073ffffffffffffffffffffffffffffffffffffffff16908173ffffffffffffffffffffffffffffffffffffffff16815250508060026000848152602001908152602001600020600082015181600001556020820151816001019080519060200190611bba929190611d2c565b506040820151816002019080519060200190611bd7929190611d2c565b506060820151816003015560808201518160040160006101000a81548173ffffffffffffffffffffffffffffffffffffffff021916908373ffffffffffffffffffffffffffffffffffffffff16021790555060a08201518160050160006101000a81548173ffffffffffffffffffffffffffffffffffffffff021916908373ffffffffffffffffffffffffffffffffffffffff16021790555060c08201518160050160146101000a81548160ff02191690831515021790555060e08201518160050160156101000a81548160ff0219169083151502179055509050505050565b60405180610100016040528060008152602001606081526020016060815260200160008152602001600073ffffffffffffffffffffffffffffffffffffffff168152602001600073ffffffffffffffffffffffffffffffffffffffff1681526020016000151581526020016000151581525090565b828054600181600116156101000203166002900490600052602060002090601f016020900481019282601f10611d6d57805160ff1916838001178555611d9b565b82800160010185558215611d9b579182015b82811115611d9a578251825591602001919060010190611d7f565b5b509050611da89190611e69565b5090565b60405180610100016040528060008152602001606081526020016060815260200160008152602001600073ffffffffffffffffffffffffffffffffffffffff168152602001600073ffffffffffffffffffffffffffffffffffffffff1681526020016000151581526020016000151581525090565b50805460018160011615610100020316600290046000825580601f10611e475750611e66565b601f016020900490600052602060002090810190611e659190611e69565b5b50565b611e8b91905b80821115611e87576000816000905550600101611e6f565b5090565b90565b600082601f830112611e9f57600080fd5b8135611eb2611ead826127c5565b612798565b91508082526020830160208301858383011115611ece57600080fd5b611ed98382846128aa565b50505092915050565b600081359050611ef1816128fd565b92915050565b600080600060608486031215611f0c57600080fd5b600084013567ffffffffffffffff811115611f2657600080fd5b611f3286828701611e8e565b935050602084013567ffffffffffffffff811115611f4f57600080fd5b611f5b86828701611e8e565b9250506040611f6c86828701611ee2565b9150509250925092565b600060208284031215611f8857600080fd5b6000611f9684828501611ee2565b91505092915050565b6000611fab8383612427565b905092915050565b611fbc81612862565b82525050565b611fcb81612862565b82525050565b6000611fdc82612801565b611fe6818561282f565b935083602082028501611ff8856127f1565b8060005b8581101561203457848403895281516120158582611f9f565b945061202083612822565b925060208a01995050600181019050611ffc565b50829750879550505050505092915050565b61204f81612874565b82525050565b61205e81612874565b82525050565b600061206f82612817565b6120798185612851565b93506120898185602086016128b9565b612092816128ec565b840191505092915050565b60006120a88261280c565b6120b28185612840565b93506120c28185602086016128b9565b6120cb816128ec565b840191505092915050565b60006120e18261280c565b6120eb8185612851565b93506120fb8185602086016128b9565b612104816128ec565b840191505092915050565b600061211c602a83612851565b91507f7468657265206d75737420626520656e6f756768206574686572206f6e206d6560008301527f73736167652073656e74000000000000000000000000000000000000000000006020830152604082019050919050565b6000612182601983612851565b91507f6974656d206d757374206861766520612076616c6964206964000000000000006000830152602082019050919050565b60006121c2602983612851565b91507f6974656d20646f6573206e6f74206861766520746f206265207075726368617360008301527f6564206265666f726500000000000000000000000000000000000000000000006020830152604082019050919050565b6000612228601d83612851565b91507f6d73672e73656e646572206d757374206265206974656d2062757965720000006000830152602082019050919050565b6000612268602683612851565b91507f7075726368617365206d75737420626520696e20766572696669636174696f6e60008301527f20706861736500000000000000000000000000000000000000000000000000006020830152604082019050919050565b60006122ce602783612851565b91507f6974656d206d7573742062652070757263686173656420627574206e6f74207660008301527f65726966696564000000000000000000000000000000000000000000000000006020830152604082019050919050565b6000612334600083612851565b9150600082019050919050565b600061234e601e83612851565b91507f73656c6c65722063616e6e6f742062757920697473206f776e206974656d00006000830152602082019050919050565b600061238e601883612851565b91507f6d73672e73656e646572206d75737420626520627579657200000000000000006000830152602082019050919050565b60006123ce602383612851565b91507f6974656d207072696365206d75737420626520756e7369676e656420696e746560008301527f67657200000000000000000000000000000000000000000000000000000000006020830152604082019050919050565b60006101008301600083015161244060008601826124de565b5060208301518482036020860152612458828261209d565b91505060408301518482036040860152612472828261209d565b915050606083015161248760608601826124de565b50608083015161249a6080860182611fb3565b5060a08301516124ad60a0860182611fb3565b5060c08301516124c060c0860182612046565b5060e08301516124d360e0860182612046565b508091505092915050565b6124e7816128a0565b82525050565b6124f6816128a0565b82525050565b600060208201905081810360008301526125168184611fd1565b905092915050565b6000602082019050818103600083015261253881846120d6565b905092915050565b600060208201905081810360008301526125598161210f565b9050919050565b6000602082019050818103600083015261257981612175565b9050919050565b60006020820190508181036000830152612599816121b5565b9050919050565b600060208201905081810360008301526125b98161221b565b9050919050565b600060208201905081810360008301526125d98161225b565b9050919050565b600060208201905081810360008301526125f9816122c1565b9050919050565b6000602082019050818103600083015261261981612327565b9050919050565b6000602082019050818103600083015261263981612341565b9050919050565b6000602082019050818103600083015261265981612381565b9050919050565b60006020820190508181036000830152612679816123c1565b9050919050565b600061010082019050612696600083018b6124ed565b81810360208301526126a8818a612064565b905081810360408301526126bc8189612064565b90506126cb60608301886124ed565b6126d86080830187611fc2565b6126e560a0830186611fc2565b6126f260c0830185612055565b6126ff60e0830184612055565b9998505050505050505050565b600061010082019050612722600083018b6124ed565b8181036020830152612734818a6120d6565b9050818103604083015261274881896120d6565b905061275760608301886124ed565b6127646080830187611fc2565b61277160a0830186611fc2565b61277e60c0830185612055565b61278b60e0830184612055565b9998505050505050505050565b6000604051905081810181811067ffffffffffffffff821117156127bb57600080fd5b8060405250919050565b600067ffffffffffffffff8211156127dc57600080fd5b601f19601f8301169050602081019050919050565b6000819050602082019050919050565b600081519050919050565b600081519050919050565b600081519050919050565b6000602082019050919050565b600082825260208201905092915050565b600082825260208201905092915050565b600082825260208201905092915050565b600061286d82612880565b9050919050565b60008115159050919050565b600073ffffffffffffffffffffffffffffffffffffffff82169050919050565b6000819050919050565b82818337600083830152505050565b60005b838110156128d75780820151818401526020810190506128bc565b838111156128e6576000848401525b50505050565b6000601f19601f8301169050919050565b612906816128a0565b811461291157600080fd5b5056fea365627a7a723158201f715b6f8c43e32904ec546e446e91aa48ca4b37fa8f7706a46680715ff2ebf96c6578706572696d656e74616cf564736f6c63430005100040",
  "source": "pragma solidity ^0.5.0;\npragma experimental ABIEncoderV2;\n\n\ncontract Marketplace {\n    string public name;\n    uint256 itemCount = 0;\n    mapping(uint256 => Item) public items;\n\n    struct Item {\n        uint256 id;\n        string name;\n        string description;\n        uint256 price;\n        address payable owner;\n        address payable buyer;\n        bool purchased;\n        bool verified;\n    }\n    /**\n     ** Events\n     **/\n    event ItemCreated(\n        uint256 id,\n        string name,\n        string description,\n        uint256 price,\n        address payable owner,\n        address payable buyer,\n        bool purchased,\n        bool verified\n    );\n\n    constructor() public {\n        name = \"Marketplace\";\n    }\n\n    function getItems() public returns (Item[] memory) {\n        Item[] memory ret = new Item[](itemCount);\n        for (uint256 i = 0; i < itemCount; i++) {\n            ret[i] = items[i];\n        }\n        return ret;\n    }\n\n    function createItem(\n        string memory _name,\n        string memory _description,\n        uint256 _price\n    ) public {\n        require(bytes(_name).length > 0, \"\");\n        require(_price > 0, \"\");\n\n        items[itemCount] = Item(\n            itemCount,\n            _name,\n            _description,\n            _price,\n            msg.sender,\n            address(0),\n            false,\n            false\n        );\n        itemCount++;\n        emit ItemCreated(\n            itemCount,\n            _name,\n            _description,\n            _price,\n            msg.sender,\n            address(0),\n            false,\n            false\n        );\n    }\n\n    function purchaseItem(uint256 _id) public payable {\n        // fetch the item\n        Item memory _item = items[_id];\n        require(\n            msg.value >= _item.price,\n            \"there must be enough ether on message sent\"\n        );\n        require(\n            _item.id >= 0 && _item.id <= itemCount,\n            \"item must have a valid id\"\n        );\n        require(!_item.purchased, \"item does not have to be purchased before\");\n        require(_item.owner != msg.sender, \"seller cannot buy its own item\");\n        _item.purchased = true;\n        _item.price = msg.value;\n        _item.buyer = msg.sender;\n        items[_id] = _item;\n    }\n\n    function verifyPurchase(uint256 _id) public payable {\n        Item memory _item = items[_id];\n        require(msg.sender == _item.buyer, \"msg.sender must be item buyer\");\n        require(\n            _item.purchased && !_item.verified,\n            \"item must be purchased but not verified\"\n        );\n        require(_item.price >= 0, \"item price must be unsigned integer\");\n        _item.purchased = true;\n        _item.verified = true;\n        address payable _seller = _item.owner;\n        items[_id] = _item;\n        _seller.transfer(_item.price);\n    }\n\n    function cancelPurchase(uint256 _id) public payable {\n        Item memory _item = items[_id];\n        require(msg.sender == _item.buyer, \"msg.sender must be buyer\");\n        require(\n            _item.purchased && !_item.verified,\n            \"purchase must be in verification phase\"\n        );\n        require(msg.sender == _item.buyer);\n        require(_item.purchased && !_item.verified);\n        _item.purchased = false;\n        address payable target = _item.buyer;\n        target.transfer(_item.price);\n        _item.buyer = address(0);\n        items[_id] = _item;\n    }\n\n    function deleteItem(uint256 _id) public {\n        Item memory _item = items[_id];\n        require(msg.sender == _item.owner);\n        require(!_item.purchased);\n        delete items[_id];\n    }\n}\n",
  "sourcePath": "/Users/berkeatac/Desktop/escrow_dapp/contracts/Marketplace.sol",
  "compiler": {
    "name": "solc",
    "version": "0.5.16+commit.9c3226ce.Emscripten.clang"
  },
  "schemaVersion": "3.1.0",
  "updatedAt": "2020-05-12T22:10:20.276Z",
  "networkType": "ethereum",
  "devdoc": {
    "methods": {}
  },
  "userdoc": {
    "methods": {}
  }
}