{
  "contractName": "Marketplace",
  "abi": [
    {
      "constant": true,
      "inputs": [],
      "name": "name",
      "outputs": [
        {
          "name": "",
          "type": "string"
        }
      ],
      "payable": false,
      "stateMutability": "view",
      "type": "function",
      "signature": "0x06fdde03"
    },
    {
      "constant": true,
      "inputs": [
        {
          "name": "",
          "type": "uint256"
        }
      ],
      "name": "items",
      "outputs": [
        {
          "name": "id",
          "type": "uint256"
        },
        {
          "name": "name",
          "type": "string"
        },
        {
          "name": "description",
          "type": "string"
        },
        {
          "name": "price",
          "type": "uint256"
        },
        {
          "name": "owner",
          "type": "address"
        },
        {
          "name": "buyer",
          "type": "address"
        },
        {
          "name": "purchased",
          "type": "bool"
        },
        {
          "name": "verified",
          "type": "bool"
        }
      ],
      "payable": false,
      "stateMutability": "view",
      "type": "function",
      "signature": "0xbfb231d2"
    },
    {
      "inputs": [],
      "payable": false,
      "stateMutability": "nonpayable",
      "type": "constructor",
      "signature": "constructor"
    },
    {
      "anonymous": false,
      "inputs": [
        {
          "indexed": false,
          "name": "id",
          "type": "uint256"
        },
        {
          "indexed": false,
          "name": "name",
          "type": "string"
        },
        {
          "indexed": false,
          "name": "description",
          "type": "string"
        },
        {
          "indexed": false,
          "name": "price",
          "type": "uint256"
        },
        {
          "indexed": false,
          "name": "owner",
          "type": "address"
        },
        {
          "indexed": false,
          "name": "buyer",
          "type": "address"
        },
        {
          "indexed": false,
          "name": "purchased",
          "type": "bool"
        },
        {
          "indexed": false,
          "name": "verified",
          "type": "bool"
        }
      ],
      "name": "ItemCreated",
      "type": "event",
      "signature": "0xb20c2d8711077550b6ab982e22f2ef42cfd654829f1d6949fc5d34edc6aeb65e"
    },
    {
      "constant": false,
      "inputs": [],
      "name": "getItems",
      "outputs": [
        {
          "components": [
            {
              "name": "id",
              "type": "uint256"
            },
            {
              "name": "name",
              "type": "string"
            },
            {
              "name": "description",
              "type": "string"
            },
            {
              "name": "price",
              "type": "uint256"
            },
            {
              "name": "owner",
              "type": "address"
            },
            {
              "name": "buyer",
              "type": "address"
            },
            {
              "name": "purchased",
              "type": "bool"
            },
            {
              "name": "verified",
              "type": "bool"
            }
          ],
          "name": "",
          "type": "tuple[]"
        }
      ],
      "payable": false,
      "stateMutability": "nonpayable",
      "type": "function",
      "signature": "0x410d59cc"
    },
    {
      "constant": false,
      "inputs": [
        {
          "name": "_name",
          "type": "string"
        },
        {
          "name": "_description",
          "type": "string"
        },
        {
          "name": "_price",
          "type": "uint256"
        }
      ],
      "name": "createItem",
      "outputs": [],
      "payable": false,
      "stateMutability": "nonpayable",
      "type": "function",
      "signature": "0x5fb6161c"
    },
    {
      "constant": false,
      "inputs": [
        {
          "name": "_id",
          "type": "uint256"
        }
      ],
      "name": "purchaseItem",
      "outputs": [],
      "payable": true,
      "stateMutability": "payable",
      "type": "function",
      "signature": "0xd38ea5bf"
    },
    {
      "constant": false,
      "inputs": [
        {
          "name": "_id",
          "type": "uint256"
        }
      ],
      "name": "verifyPurchase",
      "outputs": [],
      "payable": true,
      "stateMutability": "payable",
      "type": "function",
      "signature": "0xbaca263e"
    },
    {
      "constant": false,
      "inputs": [
        {
          "name": "_id",
          "type": "uint256"
        }
      ],
      "name": "cancelPurchase",
      "outputs": [],
      "payable": true,
      "stateMutability": "payable",
      "type": "function",
      "signature": "0xc3634ddc"
    },
    {
      "constant": false,
      "inputs": [
        {
          "name": "_id",
          "type": "uint256"
        }
      ],
      "name": "deleteItem",
      "outputs": [],
      "payable": false,
      "stateMutability": "nonpayable",
      "type": "function",
      "signature": "0x654fc833"
    }
  ],
  "bytecode": "0x608060405260006001553480156200001657600080fd5b506040805190810160405280600b81526020017f4d61726b6574706c61636500000000000000000000000000000000000000000081525060009080519060200190620000649291906200006b565b506200011a565b828054600181600116156101000203166002900490600052602060002090601f016020900481019282601f10620000ae57805160ff1916838001178555620000df565b82800160010185558215620000df579182015b82811115620000de578251825591602001919060010190620000c1565b5b509050620000ee9190620000f2565b5090565b6200011791905b8082111562000113576000816000905550600101620000f9565b5090565b90565b612867806200012a6000396000f3fe60806040526004361061008e576000357c0100000000000000000000000000000000000000000000000000000000900463ffffffff16806306fdde0314610093578063410d59cc146100be5780635fb6161c146100e9578063654fc83314610112578063baca263e1461013b578063bfb231d214610157578063c3634ddc1461019b578063d38ea5bf146101b7575b600080fd5b34801561009f57600080fd5b506100a86101d3565b6040516100b5919061247a565b60405180910390f35b3480156100ca57600080fd5b506100d3610271565b6040516100e09190612458565b60405180910390f35b3480156100f557600080fd5b50610110600480360361010b9190810190611f35565b61054d565b005b34801561011e57600080fd5b5061013960048036036101349190810190611fb4565b6107dc565b005b61015560048036036101509190810190611fb4565b610b4f565b005b34801561016357600080fd5b5061017e60048036036101799190810190611fb4565b611073565b604051610192989796959493929190612668565b60405180910390f35b6101b560048036036101b09190810190611fb4565b611245565b005b6101d160048036036101cc9190810190611fb4565b6117a3565b005b60008054600181600116156101000203166002900480601f0160208091040260200160405190810160405280929190818152602001828054600181600116156101000203166002900480156102695780601f1061023e57610100808354040283529160200191610269565b820191906000526020600020905b81548152906001019060200180831161024c57829003601f168201915b505050505081565b6060806001546040519080825280602002602001820160405280156102b057816020015b61029d611cf2565b8152602001906001900390816102955790505b50905060008090505b6001548110156105455760026000828152602001908152602001600020610100604051908101604052908160008201548152602001600182018054600181600116156101000203166002900480601f0160208091040260200160405190810160405280929190818152602001828054600181600116156101000203166002900480156103865780601f1061035b57610100808354040283529160200191610386565b820191906000526020600020905b81548152906001019060200180831161036957829003601f168201915b50505050508152602001600282018054600181600116156101000203166002900480601f0160208091040260200160405190810160405280929190818152602001828054600181600116156101000203166002900480156104285780601f106103fd57610100808354040283529160200191610428565b820191906000526020600020905b81548152906001019060200180831161040b57829003601f168201915b50505050508152602001600382015481526020016004820160009054906101000a900473ffffffffffffffffffffffffffffffffffffffff1673ffffffffffffffffffffffffffffffffffffffff1673ffffffffffffffffffffffffffffffffffffffff1681526020016005820160009054906101000a900473ffffffffffffffffffffffffffffffffffffffff1673ffffffffffffffffffffffffffffffffffffffff1673ffffffffffffffffffffffffffffffffffffffff1681526020016005820160149054906101000a900460ff161515151581526020016005820160159054906101000a900460ff161515151581525050828281518110151561052b57fe5b9060200190602002018190525080806001019150506102b9565b508091505090565b60008351111515610593576040517f08c379a000000000000000000000000000000000000000000000000000000000815260040161058a9061255c565b60405180910390fd5b6000811115156105d8576040517f08c379a00000000000000000000000000000000000000000000000000000000081526004016105cf9061255c565b60405180910390fd5b6101006040519081016040528060015481526020018481526020018381526020018281526020013373ffffffffffffffffffffffffffffffffffffffff168152602001600073ffffffffffffffffffffffffffffffffffffffff16815260200160001515815260200160001515815250600260006001548152602001908152602001600020600082015181600001556020820151816001019080519060200190610683929190611d68565b5060408201518160020190805190602001906106a0929190611d68565b506060820151816003015560808201518160040160006101000a81548173ffffffffffffffffffffffffffffffffffffffff021916908373ffffffffffffffffffffffffffffffffffffffff16021790555060a08201518160050160006101000a81548173ffffffffffffffffffffffffffffffffffffffff021916908373ffffffffffffffffffffffffffffffffffffffff16021790555060c08201518160050160146101000a81548160ff02191690831515021790555060e08201518160050160156101000a81548160ff0219169083151502179055509050506001600081548092919060010191905055507fb20c2d8711077550b6ab982e22f2ef42cfd654829f1d6949fc5d34edc6aeb65e6001548484843360008060006040516107cf9897969594939291906125dc565b60405180910390a1505050565b6107e4611de8565b60026000838152602001908152602001600020610100604051908101604052908160008201548152602001600182018054600181600116156101000203166002900480601f0160208091040260200160405190810160405280929190818152602001828054600181600116156101000203166002900480156108a75780601f1061087c576101008083540402835291602001916108a7565b820191906000526020600020905b81548152906001019060200180831161088a57829003601f168201915b50505050508152602001600282018054600181600116156101000203166002900480601f0160208091040260200160405190810160405280929190818152602001828054600181600116156101000203166002900480156109495780601f1061091e57610100808354040283529160200191610949565b820191906000526020600020905b81548152906001019060200180831161092c57829003601f168201915b50505050508152602001600382015481526020016004820160009054906101000a900473ffffffffffffffffffffffffffffffffffffffff1673ffffffffffffffffffffffffffffffffffffffff1673ffffffffffffffffffffffffffffffffffffffff1681526020016005820160009054906101000a900473ffffffffffffffffffffffffffffffffffffffff1673ffffffffffffffffffffffffffffffffffffffff1673ffffffffffffffffffffffffffffffffffffffff1681526020016005820160149054906101000a900460ff161515151581526020016005820160159054906101000a900460ff1615151515815250509050806080015173ffffffffffffffffffffffffffffffffffffffff163373ffffffffffffffffffffffffffffffffffffffff16141515610a7e57600080fd5b8060c00151151515610a8f57600080fd5b60026000838152602001908152602001600020600080820160009055600182016000610abb9190611e5e565b600282016000610acb9190611e5e565b60038201600090556004820160006101000a81549073ffffffffffffffffffffffffffffffffffffffff02191690556005820160006101000a81549073ffffffffffffffffffffffffffffffffffffffff02191690556005820160146101000a81549060ff02191690556005820160156101000a81549060ff021916905550505050565b610b57611de8565b60026000838152602001908152602001600020610100604051908101604052908160008201548152602001600182018054600181600116156101000203166002900480601f016020809104026020016040519081016040528092919081815260200182805460018160011615610100020316600290048015610c1a5780601f10610bef57610100808354040283529160200191610c1a565b820191906000526020600020905b815481529060010190602001808311610bfd57829003601f168201915b50505050508152602001600282018054600181600116156101000203166002900480601f016020809104026020016040519081016040528092919081815260200182805460018160011615610100020316600290048015610cbc5780601f10610c9157610100808354040283529160200191610cbc565b820191906000526020600020905b815481529060010190602001808311610c9f57829003601f168201915b50505050508152602001600382015481526020016004820160009054906101000a900473ffffffffffffffffffffffffffffffffffffffff1673ffffffffffffffffffffffffffffffffffffffff1673ffffffffffffffffffffffffffffffffffffffff1681526020016005820160009054906101000a900473ffffffffffffffffffffffffffffffffffffffff1673ffffffffffffffffffffffffffffffffffffffff1673ffffffffffffffffffffffffffffffffffffffff1681526020016005820160149054906101000a900460ff161515151581526020016005820160159054906101000a900460ff16151515158152505090508060a0015173ffffffffffffffffffffffffffffffffffffffff163373ffffffffffffffffffffffffffffffffffffffff16141515610e27576040517f08c379a0000000000000000000000000000000000000000000000000000000008152600401610e1e906124fc565b60405180910390fd5b8060c001518015610e3a57508060e00151155b1515610e7b576040517f08c379a0000000000000000000000000000000000000000000000000000000008152600401610e729061253c565b60405180910390fd5b6000816060015110151515610ec5576040517f08c379a0000000000000000000000000000000000000000000000000000000008152600401610ebc906125bc565b60405180910390fd5b60018160c001901515908115158152505060018160e00190151590811515815250506000816080015190508160026000858152602001908152602001600020600082015181600001556020820151816001019080519060200190610f2a929190611d68565b506040820151816002019080519060200190610f47929190611d68565b506060820151816003015560808201518160040160006101000a81548173ffffffffffffffffffffffffffffffffffffffff021916908373ffffffffffffffffffffffffffffffffffffffff16021790555060a08201518160050160006101000a81548173ffffffffffffffffffffffffffffffffffffffff021916908373ffffffffffffffffffffffffffffffffffffffff16021790555060c08201518160050160146101000a81548160ff02191690831515021790555060e08201518160050160156101000a81548160ff0219169083151502179055509050508073ffffffffffffffffffffffffffffffffffffffff166108fc83606001519081150290604051600060405180830381858888f1935050505015801561106d573d6000803e3d6000fd5b50505050565b6002602052806000526040600020600091509050806000015490806001018054600181600116156101000203166002900480601f0160208091040260200160405190810160405280929190818152602001828054600181600116156101000203166002900480156111255780601f106110fa57610100808354040283529160200191611125565b820191906000526020600020905b81548152906001019060200180831161110857829003601f168201915b505050505090806002018054600181600116156101000203166002900480601f0160208091040260200160405190810160405280929190818152602001828054600181600116156101000203166002900480156111c35780601f10611198576101008083540402835291602001916111c3565b820191906000526020600020905b8154815290600101906020018083116111a657829003601f168201915b5050505050908060030154908060040160009054906101000a900473ffffffffffffffffffffffffffffffffffffffff16908060050160009054906101000a900473ffffffffffffffffffffffffffffffffffffffff16908060050160149054906101000a900460ff16908060050160159054906101000a900460ff16905088565b61124d611de8565b60026000838152602001908152602001600020610100604051908101604052908160008201548152602001600182018054600181600116156101000203166002900480601f0160208091040260200160405190810160405280929190818152602001828054600181600116156101000203166002900480156113105780601f106112e557610100808354040283529160200191611310565b820191906000526020600020905b8154815290600101906020018083116112f357829003601f168201915b50505050508152602001600282018054600181600116156101000203166002900480601f0160208091040260200160405190810160405280929190818152602001828054600181600116156101000203166002900480156113b25780601f10611387576101008083540402835291602001916113b2565b820191906000526020600020905b81548152906001019060200180831161139557829003601f168201915b50505050508152602001600382015481526020016004820160009054906101000a900473ffffffffffffffffffffffffffffffffffffffff1673ffffffffffffffffffffffffffffffffffffffff1673ffffffffffffffffffffffffffffffffffffffff1681526020016005820160009054906101000a900473ffffffffffffffffffffffffffffffffffffffff1673ffffffffffffffffffffffffffffffffffffffff1673ffffffffffffffffffffffffffffffffffffffff1681526020016005820160149054906101000a900460ff161515151581526020016005820160159054906101000a900460ff16151515158152505090508060a0015173ffffffffffffffffffffffffffffffffffffffff163373ffffffffffffffffffffffffffffffffffffffff1614151561151d576040517f08c379a00000000000000000000000000000000000000000000000000000000081526004016115149061259c565b60405180910390fd5b8060c00151801561153057508060e00151155b1515611571576040517f08c379a00000000000000000000000000000000000000000000000000000000081526004016115689061251c565b60405180910390fd5b8060a0015173ffffffffffffffffffffffffffffffffffffffff163373ffffffffffffffffffffffffffffffffffffffff161415156115af57600080fd5b8060c0015180156115c257508060e00151155b15156115cd57600080fd5b60008160c001901515908115158152505060008160a0015190508073ffffffffffffffffffffffffffffffffffffffff166108fc83606001519081150290604051600060405180830381858888f19350505050158015611631573d6000803e3d6000fd5b5060008260a0019073ffffffffffffffffffffffffffffffffffffffff16908173ffffffffffffffffffffffffffffffffffffffff168152505081600260008581526020019081526020016000206000820151816000015560208201518160010190805190602001906116a5929190611d68565b5060408201518160020190805190602001906116c2929190611d68565b506060820151816003015560808201518160040160006101000a81548173ffffffffffffffffffffffffffffffffffffffff021916908373ffffffffffffffffffffffffffffffffffffffff16021790555060a08201518160050160006101000a81548173ffffffffffffffffffffffffffffffffffffffff021916908373ffffffffffffffffffffffffffffffffffffffff16021790555060c08201518160050160146101000a81548160ff02191690831515021790555060e08201518160050160156101000a81548160ff021916908315150217905550905050505050565b6117ab611de8565b60026000838152602001908152602001600020610100604051908101604052908160008201548152602001600182018054600181600116156101000203166002900480601f01602080910402602001604051908101604052809291908181526020018280546001816001161561010002031660029004801561186e5780601f106118435761010080835404028352916020019161186e565b820191906000526020600020905b81548152906001019060200180831161185157829003601f168201915b50505050508152602001600282018054600181600116156101000203166002900480601f0160208091040260200160405190810160405280929190818152602001828054600181600116156101000203166002900480156119105780601f106118e557610100808354040283529160200191611910565b820191906000526020600020905b8154815290600101906020018083116118f357829003601f168201915b50505050508152602001600382015481526020016004820160009054906101000a900473ffffffffffffffffffffffffffffffffffffffff1673ffffffffffffffffffffffffffffffffffffffff1673ffffffffffffffffffffffffffffffffffffffff1681526020016005820160009054906101000a900473ffffffffffffffffffffffffffffffffffffffff1673ffffffffffffffffffffffffffffffffffffffff1673ffffffffffffffffffffffffffffffffffffffff1681526020016005820160149054906101000a900460ff161515151581526020016005820160159054906101000a900460ff161515151581525050905080606001513410151515611a50576040517f08c379a0000000000000000000000000000000000000000000000000000000008152600401611a479061249c565b60405180910390fd5b6000816000015110158015611a6b5750600154816000015111155b1515611aac576040517f08c379a0000000000000000000000000000000000000000000000000000000008152600401611aa3906124bc565b60405180910390fd5b8060c00151151515611af3576040517f08c379a0000000000000000000000000000000000000000000000000000000008152600401611aea906124dc565b60405180910390fd5b3373ffffffffffffffffffffffffffffffffffffffff16816080015173ffffffffffffffffffffffffffffffffffffffff1614151515611b68576040517f08c379a0000000000000000000000000000000000000000000000000000000008152600401611b5f9061257c565b60405180910390fd5b60018160c001901515908115158152505034816060018181525050338160a0019073ffffffffffffffffffffffffffffffffffffffff16908173ffffffffffffffffffffffffffffffffffffffff16815250508060026000848152602001908152602001600020600082015181600001556020820151816001019080519060200190611bf5929190611d68565b506040820151816002019080519060200190611c12929190611d68565b506060820151816003015560808201518160040160006101000a81548173ffffffffffffffffffffffffffffffffffffffff021916908373ffffffffffffffffffffffffffffffffffffffff16021790555060a08201518160050160006101000a81548173ffffffffffffffffffffffffffffffffffffffff021916908373ffffffffffffffffffffffffffffffffffffffff16021790555060c08201518160050160146101000a81548160ff02191690831515021790555060e08201518160050160156101000a81548160ff0219169083151502179055509050505050565b6101006040519081016040528060008152602001606081526020016060815260200160008152602001600073ffffffffffffffffffffffffffffffffffffffff168152602001600073ffffffffffffffffffffffffffffffffffffffff1681526020016000151581526020016000151581525090565b828054600181600116156101000203166002900490600052602060002090601f016020900481019282601f10611da957805160ff1916838001178555611dd7565b82800160010185558215611dd7579182015b82811115611dd6578251825591602001919060010190611dbb565b5b509050611de49190611ea6565b5090565b6101006040519081016040528060008152602001606081526020016060815260200160008152602001600073ffffffffffffffffffffffffffffffffffffffff168152602001600073ffffffffffffffffffffffffffffffffffffffff1681526020016000151581526020016000151581525090565b50805460018160011615610100020316600290046000825580601f10611e845750611ea3565b601f016020900490600052602060002090810190611ea29190611ea6565b5b50565b611ec891905b80821115611ec4576000816000905550600101611eac565b5090565b90565b600082601f8301121515611ede57600080fd5b8135611ef1611eec82612721565b6126f4565b91508082526020830160208301858383011115611f0d57600080fd5b611f188382846127da565b50505092915050565b6000611f2d82356127d0565b905092915050565b600080600060608486031215611f4a57600080fd5b600084013567ffffffffffffffff811115611f6457600080fd5b611f7086828701611ecb565b935050602084013567ffffffffffffffff811115611f8d57600080fd5b611f9986828701611ecb565b9250506040611faa86828701611f21565b9150509250925092565b600060208284031215611fc657600080fd5b6000611fd484828501611f21565b91505092915050565b611fe681612788565b82525050565b6000611ff78261275a565b808452602084019350836020820285016120108561274d565b60005b8481101561204957838303885261202b838351612392565b92506120368261277b565b9150602088019750600181019050612013565b508196508694505050505092915050565b6120638161279a565b82525050565b600061207482612770565b8084526120888160208601602086016127e9565b6120918161281c565b602085010191505092915050565b60006120aa82612765565b8084526120be8160208601602086016127e9565b6120c78161281c565b602085010191505092915050565b6000602a82527f7468657265206d75737420626520656e6f756768206574686572206f6e206d6560208301527f73736167652073656e74000000000000000000000000000000000000000000006040830152606082019050919050565b6000601982527f6974656d206d757374206861766520612076616c6964206964000000000000006020830152604082019050919050565b6000602982527f6974656d20646f6573206e6f74206861766520746f206265207075726368617360208301527f6564206265666f726500000000000000000000000000000000000000000000006040830152606082019050919050565b6000601d82527f6d73672e73656e646572206d757374206265206974656d2062757965720000006020830152604082019050919050565b6000602682527f7075726368617365206d75737420626520696e20766572696669636174696f6e60208301527f20706861736500000000000000000000000000000000000000000000000000006040830152606082019050919050565b6000602782527f6974656d206d7573742062652070757263686173656420627574206e6f74207660208301527f65726966696564000000000000000000000000000000000000000000000000006040830152606082019050919050565b6000808252602082019050919050565b6000601e82527f73656c6c65722063616e6e6f742062757920697473206f776e206974656d00006020830152604082019050919050565b6000601882527f6d73672e73656e646572206d75737420626520627579657200000000000000006020830152604082019050919050565b6000602382527f6974656d207072696365206d75737420626520756e7369676e656420696e746560208301527f67657200000000000000000000000000000000000000000000000000000000006040830152606082019050919050565b6000610100830160008301516123ab6000860182612449565b50602083015184820360208601526123c3828261209f565b915050604083015184820360408601526123dd828261209f565b91505060608301516123f26060860182612449565b5060808301516124056080860182611fdd565b5060a083015161241860a0860182611fdd565b5060c083015161242b60c086018261205a565b5060e083015161243e60e086018261205a565b508091505092915050565b612452816127c6565b82525050565b600060208201905081810360008301526124728184611fec565b905092915050565b60006020820190508181036000830152612494818461209f565b905092915050565b600060208201905081810360008301526124b5816120d5565b9050919050565b600060208201905081810360008301526124d581612132565b9050919050565b600060208201905081810360008301526124f581612169565b9050919050565b60006020820190508181036000830152612515816121c6565b9050919050565b60006020820190508181036000830152612535816121fd565b9050919050565b600060208201905081810360008301526125558161225a565b9050919050565b60006020820190508181036000830152612575816122b7565b9050919050565b60006020820190508181036000830152612595816122c7565b9050919050565b600060208201905081810360008301526125b5816122fe565b9050919050565b600060208201905081810360008301526125d581612335565b9050919050565b6000610100820190506125f2600083018b612449565b8181036020830152612604818a612069565b905081810360408301526126188189612069565b90506126276060830188612449565b6126346080830187611fdd565b61264160a0830186611fdd565b61264e60c083018561205a565b61265b60e083018461205a565b9998505050505050505050565b60006101008201905061267e600083018b612449565b8181036020830152612690818a61209f565b905081810360408301526126a4818961209f565b90506126b36060830188612449565b6126c06080830187611fdd565b6126cd60a0830186611fdd565b6126da60c083018561205a565b6126e760e083018461205a565b9998505050505050505050565b6000604051905081810181811067ffffffffffffffff8211171561271757600080fd5b8060405250919050565b600067ffffffffffffffff82111561273857600080fd5b601f19601f8301169050602081019050919050565b6000602082019050919050565b600081519050919050565b600081519050919050565b600081519050919050565b6000602082019050919050565b6000612793826127a6565b9050919050565b60008115159050919050565b600073ffffffffffffffffffffffffffffffffffffffff82169050919050565b6000819050919050565b6000819050919050565b82818337600083830152505050565b60005b838110156128075780820151818401526020810190506127ec565b83811115612816576000848401525b50505050565b6000601f19601f830116905091905056fea265627a7a72305820f7283611dc21577b15f6777ac88e624a1b1e0403fc211bdc8944f5c4a089a7436c6578706572696d656e74616cf50037",
  "source": "pragma solidity ^0.5.0;\npragma experimental ABIEncoderV2;\n\n\ncontract Marketplace {\n    string public name;\n    uint256 itemCount = 0;\n    mapping(uint256 => Item) public items;\n\n    struct Item {\n        uint256 id;\n        string name;\n        string description;\n        uint256 price;\n        address payable owner;\n        address payable buyer;\n        bool purchased;\n        bool verified;\n    }\n    /**\n     ** Events\n     **/\n    event ItemCreated(\n        uint256 id,\n        string name,\n        string description,\n        uint256 price,\n        address payable owner,\n        address payable buyer,\n        bool purchased,\n        bool verified\n    );\n\n    constructor() public {\n        name = \"Marketplace\";\n    }\n\n    function getItems() public returns (Item[] memory) {\n        Item[] memory ret = new Item[](itemCount);\n        for (uint256 i = 0; i < itemCount; i++) {\n            ret[i] = items[i];\n        }\n        return ret;\n    }\n\n    function createItem(\n        string memory _name,\n        string memory _description,\n        uint256 _price\n    ) public {\n        require(bytes(_name).length > 0, \"\");\n        require(_price > 0, \"\");\n\n        items[itemCount] = Item(\n            itemCount,\n            _name,\n            _description,\n            _price,\n            msg.sender,\n            address(0),\n            false,\n            false\n        );\n        itemCount++;\n        emit ItemCreated(\n            itemCount,\n            _name,\n            _description,\n            _price,\n            msg.sender,\n            address(0),\n            false,\n            false\n        );\n    }\n\n    function purchaseItem(uint256 _id) public payable {\n        // fetch the item\n        Item memory _item = items[_id];\n        require(\n            msg.value >= _item.price,\n            \"there must be enough ether on message sent\"\n        );\n        require(\n            _item.id >= 0 && _item.id <= itemCount,\n            \"item must have a valid id\"\n        );\n        require(!_item.purchased, \"item does not have to be purchased before\");\n        require(_item.owner != msg.sender, \"seller cannot buy its own item\");\n        _item.purchased = true;\n        _item.price = msg.value;\n        _item.buyer = msg.sender;\n        items[_id] = _item;\n    }\n\n    function verifyPurchase(uint256 _id) public payable {\n        Item memory _item = items[_id];\n        require(msg.sender == _item.buyer, \"msg.sender must be item buyer\");\n        require(\n            _item.purchased && !_item.verified,\n            \"item must be purchased but not verified\"\n        );\n        require(_item.price >= 0, \"item price must be unsigned integer\");\n        _item.purchased = true;\n        _item.verified = true;\n        address payable _seller = _item.owner;\n        items[_id] = _item;\n        _seller.transfer(_item.price);\n    }\n\n    function cancelPurchase(uint256 _id) public payable {\n        Item memory _item = items[_id];\n        require(msg.sender == _item.buyer, \"msg.sender must be buyer\");\n        require(\n            _item.purchased && !_item.verified,\n            \"purchase must be in verification phase\"\n        );\n        require(msg.sender == _item.buyer);\n        require(_item.purchased && !_item.verified);\n        _item.purchased = false;\n        address payable target = _item.buyer;\n        target.transfer(_item.price);\n        _item.buyer = address(0);\n        items[_id] = _item;\n    }\n\n    function deleteItem(uint256 _id) public {\n        Item memory _item = items[_id];\n        require(msg.sender == _item.owner);\n        require(!_item.purchased);\n        delete items[_id];\n    }\n}\n",
  "sourcePath": "/Users/oguzozsaygin/Documents/Sabanci/sec532/escrow_dapp/contracts/Marketplace.sol",
  "compiler": {
    "name": "solc",
    "version": "0.5.0+commit.1d4f565a.Emscripten.clang"
  },
  "schemaVersion": "3.0.2",
  "updatedAt": "2020-05-13T16:23:32.169Z",
  "devdoc": {
    "methods": {}
  },
  "userdoc": {
    "methods": {}
  }
}