{
  "contractName": "Marketplace",
  "abi": [
    {
      "inputs": [],
      "payable": false,
      "stateMutability": "nonpayable",
      "type": "constructor"
    },
    {
      "constant": true,
      "inputs": [
        {
          "internalType": "uint256",
          "name": "",
          "type": "uint256"
        }
      ],
      "name": "items",
      "outputs": [
        {
          "internalType": "uint256",
          "name": "id",
          "type": "uint256"
        },
        {
          "internalType": "string",
          "name": "name",
          "type": "string"
        },
        {
          "internalType": "uint256",
          "name": "price",
          "type": "uint256"
        },
        {
          "internalType": "address payable",
          "name": "owner",
          "type": "address"
        },
        {
          "internalType": "address payable",
          "name": "buyer",
          "type": "address"
        },
        {
          "internalType": "bool",
          "name": "purchased",
          "type": "bool"
        },
        {
          "internalType": "bool",
          "name": "verified",
          "type": "bool"
        }
      ],
      "payable": false,
      "stateMutability": "view",
      "type": "function"
    },
    {
      "constant": true,
      "inputs": [],
      "name": "name",
      "outputs": [
        {
          "internalType": "string",
          "name": "",
          "type": "string"
        }
      ],
      "payable": false,
      "stateMutability": "view",
      "type": "function"
    },
    {
      "constant": false,
      "inputs": [],
      "name": "getItems",
      "outputs": [
        {
          "components": [
            {
              "internalType": "uint256",
              "name": "id",
              "type": "uint256"
            },
            {
              "internalType": "string",
              "name": "name",
              "type": "string"
            },
            {
              "internalType": "uint256",
              "name": "price",
              "type": "uint256"
            },
            {
              "internalType": "address payable",
              "name": "owner",
              "type": "address"
            },
            {
              "internalType": "address payable",
              "name": "buyer",
              "type": "address"
            },
            {
              "internalType": "bool",
              "name": "purchased",
              "type": "bool"
            },
            {
              "internalType": "bool",
              "name": "verified",
              "type": "bool"
            }
          ],
          "internalType": "struct Marketplace.Item[]",
          "name": "",
          "type": "tuple[]"
        }
      ],
      "payable": false,
      "stateMutability": "nonpayable",
      "type": "function"
    },
    {
      "constant": false,
      "inputs": [
        {
          "internalType": "string",
          "name": "_name",
          "type": "string"
        },
        {
          "internalType": "uint256",
          "name": "_price",
          "type": "uint256"
        }
      ],
      "name": "createItem",
      "outputs": [],
      "payable": false,
      "stateMutability": "nonpayable",
      "type": "function"
    },
    {
      "constant": false,
      "inputs": [
        {
          "internalType": "uint256",
          "name": "_id",
          "type": "uint256"
        }
      ],
      "name": "purchaseProduct",
      "outputs": [],
      "payable": true,
      "stateMutability": "payable",
      "type": "function"
    },
    {
      "constant": false,
      "inputs": [
        {
          "internalType": "uint256",
          "name": "_id",
          "type": "uint256"
        }
      ],
      "name": "verifyPurchase",
      "outputs": [],
      "payable": true,
      "stateMutability": "payable",
      "type": "function"
    }
  ],
  "bytecode": "0x608060405260006001553480156200001657600080fd5b506040518060400160405280600b81526020017f4d61726b6574706c61636500000000000000000000000000000000000000000081525060009080519060200190620000649291906200006b565b506200011a565b828054600181600116156101000203166002900490600052602060002090601f016020900481019282601f10620000ae57805160ff1916838001178555620000df565b82800160010185558215620000df579182015b82811115620000de578251825591602001919060010190620000c1565b5b509050620000ee9190620000f2565b5090565b6200011791905b8082111562000113576000816000905550600101620000f9565b5090565b90565b611afd806200012a6000396000f3fe6080604052600436106100555760003560e01c806306fdde031461005a57806338e76a0314610085578063410d59cc146100a15780638c551742146100cc578063baca263e146100f5578063bfb231d214610111575b600080fd5b34801561006657600080fd5b5061006f610154565b60405161007c91906117b1565b60405180910390f35b61009f600480360361009a9190810190611303565b6101f2565b005b3480156100ad57600080fd5b506100b6610676565b6040516100c3919061178f565b60405180910390f35b3480156100d857600080fd5b506100f360048036036100ee91908101906112af565b6108aa565b005b61010f600480360361010a9190810190611303565b610ac6565b005b34801561011d57600080fd5b5061013860048036036101339190810190611303565b610f93565b60405161014b97969594939291906118d3565b60405180910390f35b60008054600181600116156101000203166002900480601f0160208091040260200160405190810160405280929190818152602001828054600181600116156101000203166002900480156101ea5780601f106101bf576101008083540402835291602001916101ea565b820191906000526020600020905b8154815290600101906020018083116101cd57829003601f168201915b505050505081565b6101fa6110c7565b600260008381526020019081526020016000206040518060e001604052908160008201548152602001600182018054600181600116156101000203166002900480601f0160208091040260200160405190810160405280929190818152602001828054600181600116156101000203166002900480156102bb5780601f10610290576101008083540402835291602001916102bb565b820191906000526020600020905b81548152906001019060200180831161029e57829003601f168201915b50505050508152602001600282015481526020016003820160009054906101000a900473ffffffffffffffffffffffffffffffffffffffff1673ffffffffffffffffffffffffffffffffffffffff1673ffffffffffffffffffffffffffffffffffffffff1681526020016004820160009054906101000a900473ffffffffffffffffffffffffffffffffffffffff1673ffffffffffffffffffffffffffffffffffffffff1673ffffffffffffffffffffffffffffffffffffffff1681526020016004820160149054906101000a900460ff161515151581526020016004820160159054906101000a900460ff1615151515815250509050806040015134116103f8576040517f08c379a00000000000000000000000000000000000000000000000000000000081526004016103ef906117d3565b60405180910390fd5b600081600001511180156104125750600154816000015111155b610451576040517f08c379a0000000000000000000000000000000000000000000000000000000008152600401610448906117f3565b60405180910390fd5b8060a0015115610496576040517f08c379a000000000000000000000000000000000000000000000000000000000815260040161048d90611813565b60405180910390fd5b3373ffffffffffffffffffffffffffffffffffffffff16816060015173ffffffffffffffffffffffffffffffffffffffff161415610509576040517f08c379a000000000000000000000000000000000000000000000000000000000815260040161050090611893565b60405180910390fd5b60018160a00190151590811515815250503481604001818152505033816080019073ffffffffffffffffffffffffffffffffffffffff16908173ffffffffffffffffffffffffffffffffffffffff16815250508060026000848152602001908152602001600020600082015181600001556020820151816001019080519060200190610596929190611134565b506040820151816002015560608201518160030160006101000a81548173ffffffffffffffffffffffffffffffffffffffff021916908373ffffffffffffffffffffffffffffffffffffffff16021790555060808201518160040160006101000a81548173ffffffffffffffffffffffffffffffffffffffff021916908373ffffffffffffffffffffffffffffffffffffffff16021790555060a08201518160040160146101000a81548160ff02191690831515021790555060c08201518160040160156101000a81548160ff0219169083151502179055509050505050565b6060806001546040519080825280602002602001820160405280156106b557816020015b6106a26111b4565b81526020019060019003908161069a5790505b50905060008090505b6001548110156108a257600260008281526020019081526020016000206040518060e001604052908160008201548152602001600182018054600181600116156101000203166002900480601f0160208091040260200160405190810160405280929190818152602001828054600181600116156101000203166002900480156107895780601f1061075e57610100808354040283529160200191610789565b820191906000526020600020905b81548152906001019060200180831161076c57829003601f168201915b50505050508152602001600282015481526020016003820160009054906101000a900473ffffffffffffffffffffffffffffffffffffffff1673ffffffffffffffffffffffffffffffffffffffff1673ffffffffffffffffffffffffffffffffffffffff1681526020016004820160009054906101000a900473ffffffffffffffffffffffffffffffffffffffff1673ffffffffffffffffffffffffffffffffffffffff1673ffffffffffffffffffffffffffffffffffffffff1681526020016004820160149054906101000a900460ff161515151581526020016004820160159054906101000a900460ff16151515158152505082828151811061088a57fe5b602002602001018190525080806001019150506106be565b508091505090565b60008251116108ee576040517f08c379a00000000000000000000000000000000000000000000000000000000081526004016108e590611873565b60405180910390fd5b60008111610931576040517f08c379a000000000000000000000000000000000000000000000000000000000815260040161092890611873565b60405180910390fd5b6040518060e0016040528060015481526020018381526020018281526020013373ffffffffffffffffffffffffffffffffffffffff168152602001600073ffffffffffffffffffffffffffffffffffffffff168152602001600015158152602001600015158152506002600060015481526020019081526020016000206000820151816000015560208201518160010190805190602001906109d4929190611134565b506040820151816002015560608201518160030160006101000a81548173ffffffffffffffffffffffffffffffffffffffff021916908373ffffffffffffffffffffffffffffffffffffffff16021790555060808201518160040160006101000a81548173ffffffffffffffffffffffffffffffffffffffff021916908373ffffffffffffffffffffffffffffffffffffffff16021790555060a08201518160040160146101000a81548160ff02191690831515021790555060c08201518160040160156101000a81548160ff0219169083151502179055509050506001600081548092919060010191905055505050565b610ace6110c7565b600260008381526020019081526020016000206040518060e001604052908160008201548152602001600182018054600181600116156101000203166002900480601f016020809104026020016040519081016040528092919081815260200182805460018160011615610100020316600290048015610b8f5780601f10610b6457610100808354040283529160200191610b8f565b820191906000526020600020905b815481529060010190602001808311610b7257829003601f168201915b50505050508152602001600282015481526020016003820160009054906101000a900473ffffffffffffffffffffffffffffffffffffffff1673ffffffffffffffffffffffffffffffffffffffff1673ffffffffffffffffffffffffffffffffffffffff1681526020016004820160009054906101000a900473ffffffffffffffffffffffffffffffffffffffff1673ffffffffffffffffffffffffffffffffffffffff1673ffffffffffffffffffffffffffffffffffffffff1681526020016004820160149054906101000a900460ff161515151581526020016004820160159054906101000a900460ff1615151515815250509050806080015173ffffffffffffffffffffffffffffffffffffffff163373ffffffffffffffffffffffffffffffffffffffff1614610cf8576040517f08c379a0000000000000000000000000000000000000000000000000000000008152600401610cef90611833565b60405180910390fd5b8060a001518015610d0b57508060c00151155b610d4a576040517f08c379a0000000000000000000000000000000000000000000000000000000008152600401610d4190611853565b60405180910390fd5b6000816040015111610d91576040517f08c379a0000000000000000000000000000000000000000000000000000000008152600401610d88906118b3565b60405180910390fd5b60018160a001901515908115158152505060018160c001901515908115158152505060008160600151905033826060019073ffffffffffffffffffffffffffffffffffffffff16908173ffffffffffffffffffffffffffffffffffffffff16815250506000826080019073ffffffffffffffffffffffffffffffffffffffff16908173ffffffffffffffffffffffffffffffffffffffff16815250508160026000858152602001908152602001600020600082015181600001556020820151816001019080519060200190610e67929190611134565b506040820151816002015560608201518160030160006101000a81548173ffffffffffffffffffffffffffffffffffffffff021916908373ffffffffffffffffffffffffffffffffffffffff16021790555060808201518160040160006101000a81548173ffffffffffffffffffffffffffffffffffffffff021916908373ffffffffffffffffffffffffffffffffffffffff16021790555060a08201518160040160146101000a81548160ff02191690831515021790555060c08201518160040160156101000a81548160ff0219169083151502179055509050508073ffffffffffffffffffffffffffffffffffffffff166108fc83604001519081150290604051600060405180830381858888f19350505050158015610f8d573d6000803e3d6000fd5b50505050565b6002602052806000526040600020600091509050806000015490806001018054600181600116156101000203166002900480601f0160208091040260200160405190810160405280929190818152602001828054600181600116156101000203166002900480156110455780601f1061101a57610100808354040283529160200191611045565b820191906000526020600020905b81548152906001019060200180831161102857829003601f168201915b5050505050908060020154908060030160009054906101000a900473ffffffffffffffffffffffffffffffffffffffff16908060040160009054906101000a900473ffffffffffffffffffffffffffffffffffffffff16908060040160149054906101000a900460ff16908060040160159054906101000a900460ff16905087565b6040518060e00160405280600081526020016060815260200160008152602001600073ffffffffffffffffffffffffffffffffffffffff168152602001600073ffffffffffffffffffffffffffffffffffffffff1681526020016000151581526020016000151581525090565b828054600181600116156101000203166002900490600052602060002090601f016020900481019282601f1061117557805160ff19168380011785556111a3565b828001600101855582156111a3579182015b828111156111a2578251825591602001919060010190611187565b5b5090506111b09190611221565b5090565b6040518060e00160405280600081526020016060815260200160008152602001600073ffffffffffffffffffffffffffffffffffffffff168152602001600073ffffffffffffffffffffffffffffffffffffffff1681526020016000151581526020016000151581525090565b61124391905b8082111561123f576000816000905550600101611227565b5090565b90565b600082601f83011261125757600080fd5b813561126a61126582611976565b611949565b9150808252602083016020830185838301111561128657600080fd5b611291838284611a50565b50505092915050565b6000813590506112a981611aa3565b92915050565b600080604083850312156112c257600080fd5b600083013567ffffffffffffffff8111156112dc57600080fd5b6112e885828601611246565b92505060206112f98582860161129a565b9150509250929050565b60006020828403121561131557600080fd5b60006113238482850161129a565b91505092915050565b600061133883836116d5565b905092915050565b61134981611a08565b82525050565b61135881611a08565b82525050565b6000611369826119b2565b61137381856119d5565b935083602082028501611385856119a2565b8060005b858110156113c157848403895281516113a2858261132c565b94506113ad836119c8565b925060208a01995050600181019050611389565b50829750879550505050505092915050565b6113dc81611a1a565b82525050565b6113eb81611a1a565b82525050565b60006113fc826119bd565b61140681856119e6565b9350611416818560208601611a5f565b61141f81611a92565b840191505092915050565b6000611435826119bd565b61143f81856119f7565b935061144f818560208601611a5f565b61145881611a92565b840191505092915050565b6000611470602a836119f7565b91507f7468657265206d75737420626520656e6f756768206574686572206f6e206d6560008301527f73736167652073656e74000000000000000000000000000000000000000000006020830152604082019050919050565b60006114d66019836119f7565b91507f6974656d206d757374206861766520612076616c6964206964000000000000006000830152602082019050919050565b60006115166029836119f7565b91507f6974656d20646f6573206e6f74206861766520746f206265207075726368617360008301527f6564206265666f726500000000000000000000000000000000000000000000006020830152604082019050919050565b600061157c601d836119f7565b91507f6d73672e73656e646572206d757374206265206974656d2062757965720000006000830152602082019050919050565b60006115bc6027836119f7565b91507f6974656d206d7573742062652070757263686173656420627574206e6f74207660008301527f65726966696564000000000000000000000000000000000000000000000000006020830152604082019050919050565b60006116226000836119f7565b9150600082019050919050565b600061163c601e836119f7565b91507f73656c6c65722063616e6e6f742062757920697473206f776e206974656d00006000830152602082019050919050565b600061167c6023836119f7565b91507f6974656d207072696365206d75737420626520756e7369676e656420696e746560008301527f67657200000000000000000000000000000000000000000000000000000000006020830152604082019050919050565b600060e0830160008301516116ed6000860182611771565b506020830151848203602086015261170582826113f1565b915050604083015161171a6040860182611771565b50606083015161172d6060860182611340565b5060808301516117406080860182611340565b5060a083015161175360a08601826113d3565b5060c083015161176660c08601826113d3565b508091505092915050565b61177a81611a46565b82525050565b61178981611a46565b82525050565b600060208201905081810360008301526117a9818461135e565b905092915050565b600060208201905081810360008301526117cb818461142a565b905092915050565b600060208201905081810360008301526117ec81611463565b9050919050565b6000602082019050818103600083015261180c816114c9565b9050919050565b6000602082019050818103600083015261182c81611509565b9050919050565b6000602082019050818103600083015261184c8161156f565b9050919050565b6000602082019050818103600083015261186c816115af565b9050919050565b6000602082019050818103600083015261188c81611615565b9050919050565b600060208201905081810360008301526118ac8161162f565b9050919050565b600060208201905081810360008301526118cc8161166f565b9050919050565b600060e0820190506118e8600083018a611780565b81810360208301526118fa818961142a565b90506119096040830188611780565b611916606083018761134f565b611923608083018661134f565b61193060a08301856113e2565b61193d60c08301846113e2565b98975050505050505050565b6000604051905081810181811067ffffffffffffffff8211171561196c57600080fd5b8060405250919050565b600067ffffffffffffffff82111561198d57600080fd5b601f19601f8301169050602081019050919050565b6000819050602082019050919050565b600081519050919050565b600081519050919050565b6000602082019050919050565b600082825260208201905092915050565b600082825260208201905092915050565b600082825260208201905092915050565b6000611a1382611a26565b9050919050565b60008115159050919050565b600073ffffffffffffffffffffffffffffffffffffffff82169050919050565b6000819050919050565b82818337600083830152505050565b60005b83811015611a7d578082015181840152602081019050611a62565b83811115611a8c576000848401525b50505050565b6000601f19601f8301169050919050565b611aac81611a46565b8114611ab757600080fd5b5056fea365627a7a72315820e95ac2d777b68dd23cbef0f5f347f15c2838d447a2a2b59740e4ce3b96fb19176c6578706572696d656e74616cf564736f6c63430005100040",
  "source": "pragma solidity ^0.5.16;\npragma experimental ABIEncoderV2;\n\n\ncontract Marketplace {\n    string public name;\n    uint256 itemCount = 0;\n    mapping(uint256 => Item) public items;\n\n    struct Item {\n        uint256 id;\n        string name;\n        uint256 price;\n        address payable owner;\n        address payable buyer;\n        bool purchased;\n        bool verified;\n    }\n\n    // Events\n\n    constructor() public {\n        name = \"Marketplace\";\n    }\n\n    function getItems() public returns (Item[] memory) {\n        Item[] memory ret = new Item[](itemCount);\n        for (uint256 i = 0; i < itemCount; i++) {\n            ret[i] = items[i];\n        }\n        return ret;\n    }\n\n    function createItem(string memory _name, uint256 _price) public {\n        require(bytes(_name).length > 0, \"\");\n        require(_price > 0, \"\");\n\n        items[itemCount] = Item(\n            itemCount,\n            _name,\n            _price,\n            msg.sender,\n            address(0),\n            false,\n            false\n        );\n        itemCount++;\n    }\n\n    function purchaseProduct(uint256 _id) public payable {\n        // fetch the item\n        Item memory _item = items[_id];\n        require(\n            msg.value > _item.price,\n            \"there must be enough ether on message sent\"\n        );\n        require(\n            _item.id > 0 && _item.id <= itemCount,\n            \"item must have a valid id\"\n        );\n        require(!_item.purchased, \"item does not have to be purchased before\");\n        require(_item.owner != msg.sender, \"seller cannot buy its own item\");\n        _item.purchased = true;\n        _item.price = msg.value;\n        _item.buyer = msg.sender;\n        items[_id] = _item;\n    }\n\n    function verifyPurchase(uint256 _id) public payable {\n        Item memory _item = items[_id];\n        require(msg.sender == _item.buyer, \"msg.sender must be item buyer\");\n        require(\n            _item.purchased && !_item.verified,\n            \"item must be purchased but not verified\"\n        );\n        require(_item.price > 0, \"item price must be unsigned integer\");\n        _item.purchased = true;\n        _item.verified = true;\n        address payable _seller = _item.owner;\n        _item.owner = msg.sender;\n        _item.buyer = address(0);\n        items[_id] = _item;\n        _seller.transfer(_item.price);\n    }\n}\n",
  "sourcePath": "/Users/berkeatac/Desktop/escrow_dapp/contracts/Marketplace.sol",
  "compiler": {
    "name": "solc",
    "version": "0.5.16+commit.9c3226ce.Emscripten.clang"
  },
  "schemaVersion": "3.1.0",
  "updatedAt": "2020-05-12T20:25:55.678Z",
  "networkType": "ethereum",
  "devdoc": {
    "methods": {}
  },
  "userdoc": {
    "methods": {}
  }
}