{
  "contractName": "Marketplace",
  "abi": [
    {
      "constant": true,
      "inputs": [],
      "name": "name",
      "outputs": [
        {
          "name": "",
          "type": "string"
        }
      ],
      "payable": false,
      "stateMutability": "view",
      "type": "function"
    },
    {
      "constant": true,
      "inputs": [
        {
          "name": "",
          "type": "uint256"
        }
      ],
      "name": "items",
      "outputs": [
        {
          "name": "id",
          "type": "uint256"
        },
        {
          "name": "name",
          "type": "string"
        },
        {
          "name": "description",
          "type": "string"
        },
        {
          "name": "price",
          "type": "uint256"
        },
        {
          "name": "owner",
          "type": "address"
        },
        {
          "name": "buyer",
          "type": "address"
        },
        {
          "name": "purchased",
          "type": "bool"
        },
        {
          "name": "verified",
          "type": "bool"
        }
      ],
      "payable": false,
      "stateMutability": "view",
      "type": "function"
    },
    {
      "inputs": [],
      "payable": false,
      "stateMutability": "nonpayable",
      "type": "constructor"
    },
    {
      "anonymous": false,
      "inputs": [
        {
          "indexed": false,
          "name": "id",
          "type": "uint256"
        },
        {
          "indexed": false,
          "name": "name",
          "type": "string"
        },
        {
          "indexed": false,
          "name": "description",
          "type": "string"
        },
        {
          "indexed": false,
          "name": "price",
          "type": "uint256"
        },
        {
          "indexed": false,
          "name": "owner",
          "type": "address"
        },
        {
          "indexed": false,
          "name": "buyer",
          "type": "address"
        },
        {
          "indexed": false,
          "name": "purchased",
          "type": "bool"
        },
        {
          "indexed": false,
          "name": "verified",
          "type": "bool"
        }
      ],
      "name": "ItemCreated",
      "type": "event"
    },
    {
      "constant": false,
      "inputs": [],
      "name": "getItems",
      "outputs": [
        {
          "components": [
            {
              "name": "id",
              "type": "uint256"
            },
            {
              "name": "name",
              "type": "string"
            },
            {
              "name": "description",
              "type": "string"
            },
            {
              "name": "price",
              "type": "uint256"
            },
            {
              "name": "owner",
              "type": "address"
            },
            {
              "name": "buyer",
              "type": "address"
            },
            {
              "name": "purchased",
              "type": "bool"
            },
            {
              "name": "verified",
              "type": "bool"
            }
          ],
          "name": "",
          "type": "tuple[]"
        }
      ],
      "payable": false,
      "stateMutability": "nonpayable",
      "type": "function"
    },
    {
      "constant": false,
      "inputs": [
        {
          "name": "_name",
          "type": "string"
        },
        {
          "name": "_description",
          "type": "string"
        },
        {
          "name": "_price",
          "type": "uint256"
        }
      ],
      "name": "createItem",
      "outputs": [],
      "payable": false,
      "stateMutability": "nonpayable",
      "type": "function"
    },
    {
      "constant": false,
      "inputs": [
        {
          "name": "_id",
          "type": "uint256"
        }
      ],
      "name": "purchaseItem",
      "outputs": [],
      "payable": true,
      "stateMutability": "payable",
      "type": "function"
    },
    {
      "constant": false,
      "inputs": [
        {
          "name": "_id",
          "type": "uint256"
        }
      ],
      "name": "verifyPurchase",
      "outputs": [],
      "payable": true,
      "stateMutability": "payable",
      "type": "function"
    },
    {
      "constant": false,
      "inputs": [
        {
          "name": "",
          "type": "uint256"
        }
      ],
      "name": "deleteItem",
      "outputs": [],
      "payable": false,
      "stateMutability": "nonpayable",
      "type": "function"
    }
  ],
  "bytecode": "0x608060405260006001553480156200001657600080fd5b506040805190810160405280600b81526020017f4d61726b6574706c61636500000000000000000000000000000000000000000081525060009080519060200190620000649291906200006b565b506200011a565b828054600181600116156101000203166002900490600052602060002090601f016020900481019282601f10620000ae57805160ff1916838001178555620000df565b82800160010185558215620000df579182015b82811115620000de578251825591602001919060010190620000c1565b5b509050620000ee9190620000f2565b5090565b6200011791905b8082111562000113576000816000905550600101620000f9565b5090565b90565b611ec4806200012a6000396000f3fe608060405260043610610083576000357c0100000000000000000000000000000000000000000000000000000000900463ffffffff16806306fdde0314610088578063410d59cc146100b35780635fb6161c146100de578063654fc83314610107578063baca263e14610130578063bfb231d21461014c578063d38ea5bf14610190575b600080fd5b34801561009457600080fd5b5061009d6101ac565b6040516100aa9190611b17565b60405180910390f35b3480156100bf57600080fd5b506100c861024a565b6040516100d59190611af5565b60405180910390f35b3480156100ea57600080fd5b5061010560048036036101009190810190611666565b610526565b005b34801561011357600080fd5b5061012e600480360361012991908101906116e5565b6107b5565b005b61014a600480360361014591908101906116e5565b6107b8565b005b34801561015857600080fd5b50610173600480360361016e91908101906116e5565b610d4c565b604051610187989796959493929190611cc5565b60405180910390f35b6101aa60048036036101a591908101906116e5565b610f1e565b005b60008054600181600116156101000203166002900480601f0160208091040260200160405190810160405280929190818152602001828054600181600116156101000203166002900480156102425780601f1061021757610100808354040283529160200191610242565b820191906000526020600020905b81548152906001019060200180831161022557829003601f168201915b505050505081565b60608060015460405190808252806020026020018201604052801561028957816020015b61027661146b565b81526020019060019003908161026e5790505b50905060008090505b60015481101561051e5760026000828152602001908152602001600020610100604051908101604052908160008201548152602001600182018054600181600116156101000203166002900480601f01602080910402602001604051908101604052809291908181526020018280546001816001161561010002031660029004801561035f5780601f106103345761010080835404028352916020019161035f565b820191906000526020600020905b81548152906001019060200180831161034257829003601f168201915b50505050508152602001600282018054600181600116156101000203166002900480601f0160208091040260200160405190810160405280929190818152602001828054600181600116156101000203166002900480156104015780601f106103d657610100808354040283529160200191610401565b820191906000526020600020905b8154815290600101906020018083116103e457829003601f168201915b50505050508152602001600382015481526020016004820160009054906101000a900473ffffffffffffffffffffffffffffffffffffffff1673ffffffffffffffffffffffffffffffffffffffff1673ffffffffffffffffffffffffffffffffffffffff1681526020016005820160009054906101000a900473ffffffffffffffffffffffffffffffffffffffff1673ffffffffffffffffffffffffffffffffffffffff1673ffffffffffffffffffffffffffffffffffffffff1681526020016005820160149054906101000a900460ff161515151581526020016005820160159054906101000a900460ff161515151581525050828281518110151561050457fe5b906020019060200201819052508080600101915050610292565b508091505090565b6000835111151561056c576040517f08c379a000000000000000000000000000000000000000000000000000000000815260040161056390611bd9565b60405180910390fd5b6000811115156105b1576040517f08c379a00000000000000000000000000000000000000000000000000000000081526004016105a890611bd9565b60405180910390fd5b6101006040519081016040528060015481526020018481526020018381526020018281526020013373ffffffffffffffffffffffffffffffffffffffff168152602001600073ffffffffffffffffffffffffffffffffffffffff1681526020016000151581526020016000151581525060026000600154815260200190815260200160002060008201518160000155602082015181600101908051906020019061065c9291906114e1565b5060408201518160020190805190602001906106799291906114e1565b506060820151816003015560808201518160040160006101000a81548173ffffffffffffffffffffffffffffffffffffffff021916908373ffffffffffffffffffffffffffffffffffffffff16021790555060a08201518160050160006101000a81548173ffffffffffffffffffffffffffffffffffffffff021916908373ffffffffffffffffffffffffffffffffffffffff16021790555060c08201518160050160146101000a81548160ff02191690831515021790555060e08201518160050160156101000a81548160ff0219169083151502179055509050506001600081548092919060010191905055507fb20c2d8711077550b6ab982e22f2ef42cfd654829f1d6949fc5d34edc6aeb65e6001548484843360008060006040516107a8989796959493929190611c39565b60405180910390a1505050565b50565b6107c0611561565b60026000838152602001908152602001600020610100604051908101604052908160008201548152602001600182018054600181600116156101000203166002900480601f0160208091040260200160405190810160405280929190818152602001828054600181600116156101000203166002900480156108835780601f1061085857610100808354040283529160200191610883565b820191906000526020600020905b81548152906001019060200180831161086657829003601f168201915b50505050508152602001600282018054600181600116156101000203166002900480601f0160208091040260200160405190810160405280929190818152602001828054600181600116156101000203166002900480156109255780601f106108fa57610100808354040283529160200191610925565b820191906000526020600020905b81548152906001019060200180831161090857829003601f168201915b50505050508152602001600382015481526020016004820160009054906101000a900473ffffffffffffffffffffffffffffffffffffffff1673ffffffffffffffffffffffffffffffffffffffff1673ffffffffffffffffffffffffffffffffffffffff1681526020016005820160009054906101000a900473ffffffffffffffffffffffffffffffffffffffff1673ffffffffffffffffffffffffffffffffffffffff1673ffffffffffffffffffffffffffffffffffffffff1681526020016005820160149054906101000a900460ff161515151581526020016005820160159054906101000a900460ff16151515158152505090508060a0015173ffffffffffffffffffffffffffffffffffffffff163373ffffffffffffffffffffffffffffffffffffffff16141515610a90576040517f08c379a0000000000000000000000000000000000000000000000000000000008152600401610a8790611b99565b60405180910390fd5b8060c001518015610aa357508060e00151155b1515610ae4576040517f08c379a0000000000000000000000000000000000000000000000000000000008152600401610adb90611bb9565b60405180910390fd5b60008160600151111515610b2d576040517f08c379a0000000000000000000000000000000000000000000000000000000008152600401610b2490611c19565b60405180910390fd5b60018160c001901515908115158152505060018160e001901515908115158152505060008160800151905033826080019073ffffffffffffffffffffffffffffffffffffffff16908173ffffffffffffffffffffffffffffffffffffffff168152505060008260a0019073ffffffffffffffffffffffffffffffffffffffff16908173ffffffffffffffffffffffffffffffffffffffff16815250508160026000858152602001908152602001600020600082015181600001556020820151816001019080519060200190610c039291906114e1565b506040820151816002019080519060200190610c209291906114e1565b506060820151816003015560808201518160040160006101000a81548173ffffffffffffffffffffffffffffffffffffffff021916908373ffffffffffffffffffffffffffffffffffffffff16021790555060a08201518160050160006101000a81548173ffffffffffffffffffffffffffffffffffffffff021916908373ffffffffffffffffffffffffffffffffffffffff16021790555060c08201518160050160146101000a81548160ff02191690831515021790555060e08201518160050160156101000a81548160ff0219169083151502179055509050508073ffffffffffffffffffffffffffffffffffffffff166108fc83606001519081150290604051600060405180830381858888f19350505050158015610d46573d6000803e3d6000fd5b50505050565b6002602052806000526040600020600091509050806000015490806001018054600181600116156101000203166002900480601f016020809104026020016040519081016040528092919081815260200182805460018160011615610100020316600290048015610dfe5780601f10610dd357610100808354040283529160200191610dfe565b820191906000526020600020905b815481529060010190602001808311610de157829003601f168201915b505050505090806002018054600181600116156101000203166002900480601f016020809104026020016040519081016040528092919081815260200182805460018160011615610100020316600290048015610e9c5780601f10610e7157610100808354040283529160200191610e9c565b820191906000526020600020905b815481529060010190602001808311610e7f57829003601f168201915b5050505050908060030154908060040160009054906101000a900473ffffffffffffffffffffffffffffffffffffffff16908060050160009054906101000a900473ffffffffffffffffffffffffffffffffffffffff16908060050160149054906101000a900460ff16908060050160159054906101000a900460ff16905088565b610f26611561565b60026000838152602001908152602001600020610100604051908101604052908160008201548152602001600182018054600181600116156101000203166002900480601f016020809104026020016040519081016040528092919081815260200182805460018160011615610100020316600290048015610fe95780601f10610fbe57610100808354040283529160200191610fe9565b820191906000526020600020905b815481529060010190602001808311610fcc57829003601f168201915b50505050508152602001600282018054600181600116156101000203166002900480601f01602080910402602001604051908101604052809291908181526020018280546001816001161561010002031660029004801561108b5780601f106110605761010080835404028352916020019161108b565b820191906000526020600020905b81548152906001019060200180831161106e57829003601f168201915b50505050508152602001600382015481526020016004820160009054906101000a900473ffffffffffffffffffffffffffffffffffffffff1673ffffffffffffffffffffffffffffffffffffffff1673ffffffffffffffffffffffffffffffffffffffff1681526020016005820160009054906101000a900473ffffffffffffffffffffffffffffffffffffffff1673ffffffffffffffffffffffffffffffffffffffff1673ffffffffffffffffffffffffffffffffffffffff1681526020016005820160149054906101000a900460ff161515151581526020016005820160159054906101000a900460ff16151515158152505090508060600151341115156111ca576040517f08c379a00000000000000000000000000000000000000000000000000000000081526004016111c190611b39565b60405180910390fd5b600081600001511180156111e45750600154816000015111155b1515611225576040517f08c379a000000000000000000000000000000000000000000000000000000000815260040161121c90611b59565b60405180910390fd5b8060c0015115151561126c576040517f08c379a000000000000000000000000000000000000000000000000000000000815260040161126390611b79565b60405180910390fd5b3373ffffffffffffffffffffffffffffffffffffffff16816080015173ffffffffffffffffffffffffffffffffffffffff16141515156112e1576040517f08c379a00000000000000000000000000000000000000000000000000000000081526004016112d890611bf9565b60405180910390fd5b60018160c001901515908115158152505034816060018181525050338160a0019073ffffffffffffffffffffffffffffffffffffffff16908173ffffffffffffffffffffffffffffffffffffffff1681525050806002600084815260200190815260200160002060008201518160000155602082015181600101908051906020019061136e9291906114e1565b50604082015181600201908051906020019061138b9291906114e1565b506060820151816003015560808201518160040160006101000a81548173ffffffffffffffffffffffffffffffffffffffff021916908373ffffffffffffffffffffffffffffffffffffffff16021790555060a08201518160050160006101000a81548173ffffffffffffffffffffffffffffffffffffffff021916908373ffffffffffffffffffffffffffffffffffffffff16021790555060c08201518160050160146101000a81548160ff02191690831515021790555060e08201518160050160156101000a81548160ff0219169083151502179055509050505050565b6101006040519081016040528060008152602001606081526020016060815260200160008152602001600073ffffffffffffffffffffffffffffffffffffffff168152602001600073ffffffffffffffffffffffffffffffffffffffff1681526020016000151581526020016000151581525090565b828054600181600116156101000203166002900490600052602060002090601f016020900481019282601f1061152257805160ff1916838001178555611550565b82800160010185558215611550579182015b8281111561154f578251825591602001919060010190611534565b5b50905061155d91906115d7565b5090565b6101006040519081016040528060008152602001606081526020016060815260200160008152602001600073ffffffffffffffffffffffffffffffffffffffff168152602001600073ffffffffffffffffffffffffffffffffffffffff1681526020016000151581526020016000151581525090565b6115f991905b808211156115f55760008160009055506001016115dd565b5090565b90565b600082601f830112151561160f57600080fd5b813561162261161d82611d7e565b611d51565b9150808252602083016020830185838301111561163e57600080fd5b611649838284611e37565b50505092915050565b600061165e8235611e2d565b905092915050565b60008060006060848603121561167b57600080fd5b600084013567ffffffffffffffff81111561169557600080fd5b6116a1868287016115fc565b935050602084013567ffffffffffffffff8111156116be57600080fd5b6116ca868287016115fc565b92505060406116db86828701611652565b9150509250925092565b6000602082840312156116f757600080fd5b600061170584828501611652565b91505092915050565b61171781611de5565b82525050565b600061172882611db7565b8084526020840193508360208202850161174185611daa565b60005b8481101561177a57838303885261175c838351611a2f565b925061176782611dd8565b9150602088019750600181019050611744565b508196508694505050505092915050565b61179481611df7565b82525050565b60006117a582611dcd565b8084526117b9816020860160208601611e46565b6117c281611e79565b602085010191505092915050565b60006117db82611dc2565b8084526117ef816020860160208601611e46565b6117f881611e79565b602085010191505092915050565b6000602a82527f7468657265206d75737420626520656e6f756768206574686572206f6e206d6560208301527f73736167652073656e74000000000000000000000000000000000000000000006040830152606082019050919050565b6000601982527f6974656d206d757374206861766520612076616c6964206964000000000000006020830152604082019050919050565b6000602982527f6974656d20646f6573206e6f74206861766520746f206265207075726368617360208301527f6564206265666f726500000000000000000000000000000000000000000000006040830152606082019050919050565b6000601d82527f6d73672e73656e646572206d757374206265206974656d2062757965720000006020830152604082019050919050565b6000602782527f6974656d206d7573742062652070757263686173656420627574206e6f74207660208301527f65726966696564000000000000000000000000000000000000000000000000006040830152606082019050919050565b6000808252602082019050919050565b6000601e82527f73656c6c65722063616e6e6f742062757920697473206f776e206974656d00006020830152604082019050919050565b6000602382527f6974656d207072696365206d75737420626520756e7369676e656420696e746560208301527f67657200000000000000000000000000000000000000000000000000000000006040830152606082019050919050565b600061010083016000830151611a486000860182611ae6565b5060208301518482036020860152611a6082826117d0565b91505060408301518482036040860152611a7a82826117d0565b9150506060830151611a8f6060860182611ae6565b506080830151611aa2608086018261170e565b5060a0830151611ab560a086018261170e565b5060c0830151611ac860c086018261178b565b5060e0830151611adb60e086018261178b565b508091505092915050565b611aef81611e23565b82525050565b60006020820190508181036000830152611b0f818461171d565b905092915050565b60006020820190508181036000830152611b3181846117d0565b905092915050565b60006020820190508181036000830152611b5281611806565b9050919050565b60006020820190508181036000830152611b7281611863565b9050919050565b60006020820190508181036000830152611b928161189a565b9050919050565b60006020820190508181036000830152611bb2816118f7565b9050919050565b60006020820190508181036000830152611bd28161192e565b9050919050565b60006020820190508181036000830152611bf28161198b565b9050919050565b60006020820190508181036000830152611c128161199b565b9050919050565b60006020820190508181036000830152611c32816119d2565b9050919050565b600061010082019050611c4f600083018b611ae6565b8181036020830152611c61818a61179a565b90508181036040830152611c75818961179a565b9050611c846060830188611ae6565b611c91608083018761170e565b611c9e60a083018661170e565b611cab60c083018561178b565b611cb860e083018461178b565b9998505050505050505050565b600061010082019050611cdb600083018b611ae6565b8181036020830152611ced818a6117d0565b90508181036040830152611d0181896117d0565b9050611d106060830188611ae6565b611d1d608083018761170e565b611d2a60a083018661170e565b611d3760c083018561178b565b611d4460e083018461178b565b9998505050505050505050565b6000604051905081810181811067ffffffffffffffff82111715611d7457600080fd5b8060405250919050565b600067ffffffffffffffff821115611d9557600080fd5b601f19601f8301169050602081019050919050565b6000602082019050919050565b600081519050919050565b600081519050919050565b600081519050919050565b6000602082019050919050565b6000611df082611e03565b9050919050565b60008115159050919050565b600073ffffffffffffffffffffffffffffffffffffffff82169050919050565b6000819050919050565b6000819050919050565b82818337600083830152505050565b60005b83811015611e64578082015181840152602081019050611e49565b83811115611e73576000848401525b50505050565b6000601f19601f830116905091905056fea265627a7a72305820e47827a3632ac3560a900e687c881f9c74cb33474e1c72515e7c613ec985b2e46c6578706572696d656e74616cf50037",
  "source": "pragma solidity ^0.5.0;\npragma experimental ABIEncoderV2;\n\n\ncontract Marketplace {\n    string public name;\n    uint itemCount = 0;\n    mapping(uint => Item) public items;\n\n    struct Item {\n        uint id;\n        string name;\n        string description;\n        uint price;\n        address payable owner;\n        address payable buyer;\n        bool purchased;\n        bool verified;\n    }\n    /**\n     ** Events\n     **/\n    event ItemCreated(\n        uint id,\n        string name,\n        string description,\n        uint price,\n        address payable owner,\n        address payable buyer,\n        bool purchased,\n        bool verified\n    );\n\n    constructor() public {\n        name = \"Marketplace\";\n    }\n\n    function getItems() public returns (Item[] memory) {\n        Item[] memory ret = new Item[](itemCount);\n        for (uint i = 0; i < itemCount; i++) {\n            ret[i] = items[i];\n        }\n        return ret;\n    }\n\n    function createItem(\n        string memory _name,\n        string memory _description,\n        uint256 _price\n    ) public {\n        require(bytes(_name).length > 0, \"\");\n        require(_price > 0, \"\");\n\n        items[itemCount] = Item(\n            itemCount,\n            _name,\n            _description,\n            _price,\n            msg.sender,\n            address(0),\n            false,\n            false\n        );\n        itemCount++;\n        emit ItemCreated(\n            itemCount,\n            _name,\n            _description,\n            _price,\n            msg.sender,\n            address(0),\n            false,\n            false\n        );\n    }\n\n    function purchaseItem(uint _id) public payable {\n        // fetch the item\n        Item memory _item = items[_id];\n        require(\n            msg.value > _item.price,\n            \"there must be enough ether on message sent\"\n        );\n        require(\n            _item.id > 0 && _item.id <= itemCount,\n            \"item must have a valid id\"\n        );\n        require(!_item.purchased, \"item does not have to be purchased before\");\n        require(_item.owner != msg.sender, \"seller cannot buy its own item\");\n        _item.purchased = true;\n        _item.price = msg.value;\n        _item.buyer = msg.sender;\n        items[_id] = _item;\n    }\n\n    function verifyPurchase(uint _id) public payable {\n        Item memory _item = items[_id];\n        require(msg.sender == _item.buyer, \"msg.sender must be item buyer\");\n        require(\n            _item.purchased && !_item.verified,\n            \"item must be purchased but not verified\"\n        );\n        require(_item.price > 0, \"item price must be unsigned integer\");\n        _item.purchased = true;\n        _item.verified = true;\n        address payable _seller = _item.owner;\n        _item.owner = msg.sender;\n        _item.buyer = address(0);\n        items[_id] = _item;\n        _seller.transfer(_item.price);\n    }\n\n    function deleteItem(uint) public {\n        \n    }\n}\n",
  "sourcePath": "/Users/oguzozsaygin/Documents/Sabanci/sec532/escrow_dapp/contracts/Marketplace.sol",
  "compiler": {
    "name": "solc",
    "version": "0.5.0+commit.1d4f565a.Emscripten.clang"
  },
  "schemaVersion": "3.0.2",
  "updatedAt": "2020-05-12T20:48:38.818Z",
  "devdoc": {
    "methods": {}
  },
  "userdoc": {
    "methods": {}
  }
}